{"noir/recursion/contract/recursion/plonk_vk.sol":{"UltraVerifier":{"abi":[{"inputs":[],"name":"EC_SCALAR_MUL_FAILURE","type":"error"},{"inputs":[],"name":"MOD_EXP_FAILURE","type":"error"},{"inputs":[],"name":"PROOF_FAILURE","type":"error"},{"inputs":[{"internalType":"uint256","name":"expected","type":"uint256"},{"internalType":"uint256","name":"actual","type":"uint256"}],"name":"PUBLIC_INPUT_COUNT_INVALID","type":"error"},{"inputs":[],"name":"PUBLIC_INPUT_GE_P","type":"error"},{"inputs":[],"name":"PUBLIC_INPUT_INVALID_BN128_G1_POINT","type":"error"},{"inputs":[],"name":"getVerificationKeyHash","outputs":[{"internalType":"bytes32","name":"","type":"bytes32"}],"stateMutability":"pure","type":"function"},{"inputs":[{"internalType":"bytes","name":"_proof","type":"bytes"},{"internalType":"bytes32[]","name":"_publicInputs","type":"bytes32[]"}],"name":"verify","outputs":[{"internalType":"bool","name":"","type":"bool"}],"stateMutability":"view","type":"function"}],"evm":{"bytecode":{"linkReferences":{},"object":"608060405234801561001057600080fd5b50612de8806100206000396000f3fe608060405234801561001057600080fd5b50600436106100365760003560e01c8063937f6a101461003b578063ea50d0e41461006e575b600080fd5b6040517fb15fb4635b40c66f71df2810bd1670080691f5c34cf835c95491abe37b3f059881526020015b60405180910390f35b61008161007c366004612ced565b610091565b6040519015158152602001610065565b620400006103805260106103a0527f19ddbcaf3a8d46c15c0176fbb5b95e4dc57088ff13f4d1bd84c6bfa57dcdc0e06103c0527f30644259cd94e7dd5045d7a27013b7fcd21c9e3b7fa75222e7bda49b729b04016103e0527f12f435eafe25e8eae4fb50871df2e4cc6bac4d8a1e00c33378bd4e0306d7caf0610400527f2177e7d2c61c8bfc6381eb3946119f7df04b1dd7819146d5d2bf6d947e5b581d610420527f281c3db6ad09ea7c4034ff3742705abe2258746e7557f6708254730ab80c24a1610440527f0b9d8d7adc240efba474f4adc2b3bde5e2653fe9aee015034171a4a08055f2bb610460527f14ca6d2277d046bfec277680aaef68c036229345162dc5898d4c59c48af3050c610480527f0193076249ef903f84326def1f71f3e0f8964d6ad9b8169b10373534c5d8ce3a6104a0527f19b321f51f228bda6233253f630bd7a4ef8886b0b0b04b8aa5dae7de262627416104c0527f29e642b2b28bb28117bf91a05f4072be4aa7b9e461a30a8b512c9ce550b8bd116104e0527f135c2b4ca117cad1e6de43b35922898f10a215ca4bd212fb235b11f749747a40610500527f1b5898cbfad83193f396baa1b97d270788e813afeb2a55342f4e01118d7c8d52610520527f1e0239d0219e156e4e28985351ae5dc22bda34ec57c95cfaba4b5982d348fc1c610540527f26a95879623a997fb620ec7580a2bb9e8fad9de515d06c347c8f80946fc77aff610560527f19a7eac100b5595212359cdb4f7bff4e070301fd5c4c43fe9b99168bbdf2675b610580527f1c80926658a57d201893968d1561e78e4ddae6f9ef1dfb6bcfa9a5fb4189fc736105a0527f23e5fff3120c5d1fe27a55ea387d4463d6466be8067e194b3fb73a9f7de7669d6105c0527f2722444f9b1399d5b0e0827663cf997bca66c8100efd1a82b3e5e86a588247726105e0527f26ba1f4d0e050a78621b511228a9c6983f7868dde8d03a3206ba8ecb4745228c610600527ee496fbcd18c30efca8bbab288382270e7c1ca730a6de1c97f1fdb8e8cbb8ae610620527f2efc9a610ab04f1c658187c81cb58db4a17436b03796bd124e7715b628f57e3c610640527f10a6e11e2ea7b3ec9a77bbfb6e88ffd6f8377903f7d5ffbf3501748f20671955610660527f04155580c5dc38e8f1d4df4ca249a8738f8e8e8e22df58d6ae7004a8a6fd167c610680527f1b64423d62aa3deb0cfc2825cbc47fb3b3ff013643455a70b0b1629a9305f3a06106a0527f19d86a7fc2959f042fc31aac54955b776359a460e5dfce5d02259a7f1e0b76626106c0527f1f4968620f372f7dfde9834aa7c2f210aa40fee7f79e367d7ef8d60bca663a8d6106e0527f2d8eba056a24b59399f7ed31ecd46b22b64802b0e7c70a964937c7a1fc4668c7610700527f05c206ffb3fe5360e2ec2d9328b762415441101d004c2923a04f5f8fb6758ab5610720527f1e722d7fec1119559c0657fff711e9649f4b3fe44f230a3374ec07e917af3696610740527f27fb5ff9c285212a9ca0a55b4e4fe97cf380902a85be9cdd8c0222101ee25967610760527f09796190fd3ba909c6530c89811df9b5b4f5f2fe6501ec21dd864b20673fc02c610780527eb9c2423e310caa43e1eb83b55f53977fccbed85422df8935635d77d146bf396107a0527f217dad26ccc0c543ec5750513e9365a5cae8164b08d364efcf4b5890ff05f3346107c0527f1db28433f6bde424423f3587787f81c48101d2dc6e54b431332cb275f8518c626107e0527f2cc2d90f2da7f4ec16b7fe61babd4fb9b580ecff03c471764dd67a8c433afab5610800527f3032b9ff096a43ce326cc63ffc6a86dcb913fb1f7700939f5304f6c6beb24574610820527f1f4c58502ca713ed0bffb4ff31ed55e557e83a37d31b8e703aa9219d6158e2d2610840527f0b0d5ed5432c5e7b56344c1d26ce0d9f632e8f8aa52505d6c89f6da89f357fa8610860527f18f58f41d54253e53e11e950a30712a53ac21c410a53424cf08b5c866aa18ef7610880527f085b844a9b90e6d79f01271644b9cbc23f81cccb1679ddb7c4cf28f525ff41ad6108a0527f0f8d9d7a2b2983c8369f37b97a9b31c262e7d1c6a50f51fe47f67c9af7d86ea66108c0527f0e26a6784cf575d142a4080549f5b64cdc836c4bde49bec6d5e23519f4ebde276108e0527f0a64be375589dfff55fb56b5b26cfb28bf3f9ab334408d13d691902f26444dbd610900527f2a1f361dd187cbb1a94ac87b3adbd6468dfcdb5cb0e158720300f0d882b1f6cb610920527f15cc223624168806265236ca0e28f0e8d5ce99bedcf4a471674d0b287c1b7d22610940527f047e6da9bea49a99709d80dd68cca1ebee1948a979d6c758914fdcd71edba3ec610960527f16fea77329fbb4b48bf01135aaff082061156e890ce6ececc9f531a7ae921efc610980527f15b50d6045d79861ff95a63c98fe6f87d8e1e46f9893d01ff30e8695132beb296109a05260016109c05260006109e08190527f260e01b251f6f1c7e7ff4e580791dee8ea51d87a358e038b4efe30fac09383c1610a00527f0118c4d5b837bcc2bc89b5b398b5974e9f5944073b32078b7e231fec938883b0610a20527f04fc6369f7110fe3d25156c1bb9a72859cf2a04641f99ba4ee413c80da6a5fe4610a40527f22febda3c0c0632a56475b4214e5615e11e6dd3f96e6cea2854a87d4dacc5e55610a60527f036853f083780e87f8d7c71d111119c57dbe118c22d5ad707a82317466c5174c613400526103a05182811461089f576040517f7667dc9b000000000000000000000000000000000000000000000000000000008152600481018290526024810184905260440160405180910390fd5b7f30644e72e131a029b85045b68181585d97816a916871ca8d3c208c16d87cfd477f30644e72e131a029b85045b68181585d2833e84879b9709143e1f593f00000016024600435018281350661122052826020820135066112005282604082013506611260528260608201350661124052826080820135066112a0528260a082013506611280528260c0820135066112e0528260e0820135066112c05282610100820135066113205282610120820135066113005282610140820135066113605282610160820135066113405282610180820135066113a052826101a08201350661138052826101c0820135066113e052826101e0820135066113c05282610200820135066114205282610220820135066114005282610240820135066114605282610260820135066114405282610280820135066114a052826102a08201350661148052816102c08201350661160052816102e0820135066116205281610300820135066116405281610320820135066116605281610340820135066116805281610360820135066116a05281610380820135066116c052816103a0820135066116e052816103c08201350661170052816103e0820135066117205281610400820135066117405281610420820135066117605281610440820135066117805281610460820135066117a05281610480820135066117c052816104a0820135066117e052816104c08201350661180052816104e0820135066119605281610500820135066119805281610520820135066119a05281610540820135066119c052816105608201350661184052816105808201350661186052816105a08201350661188052816105c0820135066118a052816105e0820135066118c05281610600820135066118e05281610620820135066119005281610640820135066119205281610660820135066119405281610680820135066119e052816106a08201350661200052816106c08201350661202052816106e0820135066120405281610700820135066120605281610720820135066120805281610740820135066120a05281610760820135066120c05281610780820135066120e052816107a08201350661210052816107c08201350661212052826107e08201350661232052826108008201350661230052826108208201350661236052826108408201350661234052506109c05115610d1a576024803501806109e05160051b0190508035602082013560441b81019050604082013560881b81019050606082013560cc1b81019050608082013560a083013560441b8101905060c083013560881b8101905060e083013560cc1b8101905061010083013561012084013560441b8101905061014084013560881b8101905061016084013560cc1b810190506101808401356101a085013560441b810190506101c085013560881b810190506101e085013560cc1b810190508361350052826135205281613540528061356052868110878410168783108886101616610d14577feba9f4a60000000000000000000000000000000000000000000000000000000060005260046000fd5b50505050505b6103805160e01b6000526103a05160e01b60045260086000208061358052602480350160206103a05102808260206135800137600435602401915060c0826135a083013760e0016135802083810661266081905290925090508281800961268052828161268051096126a05250806000526112e0516020526112c051604052611320516060526113005160805260a0600020905081810661260052806000526001602053506021600090812082810661262052815261136051602052611340516040526113a0516060526113805160805260a09020818106612640819052828180096134205282816134205109613440528281613440510961346052806134805250806000526113e0516020526113c05160405261142051606052611400516080526114605160a0526114405160c0526114a05160e052611480516101005261012060002090508181066126c052806126e0525061260051612620516103c051600180856001602480350160206103a0510281018360058a0984600c8b0999505b81831015610eda57823585811085169450858a82089050858183018909975085818c01880996505084888209905084888b099950602083019250610e9b565b50505080610f0c577f374a972f0000000000000000000000000000000000000000000000000000000060005260046000fd5b50508161300052806130205250505050508081600161260051086126205109806103805160015b81811015610f48578483840992508001610f33565b5050613100528181800990508181820961312052506126c05161038051819060015b81811015610f7f578483840992508001610f6a565b50508061304052826001840382089050613400518084036103e051858286088684840992508687848808820990508684840992508687848808820990508687888686098808820990506103c051925086828609915086600188038708878485099450876001890389898b888d8b8c0909090896506130205194508493508782860994508488878709955085898388099650868a61312051890997508760206000526020805260206040528b8b8a0960605260028c036080528b60a0526020600060c0600060055afa611075577ff894a7bc0000000000000000000000000000000000000000000000000000000060005260046000fd5b60005198508b818a0990508b8b8a0998508b828a0991508b613120518a0998508b838a0992508b858a0998508b848a0993508b8a8a0998508b888a0997508b868a0998508b613020518d8b8c090998508b896130005109613060528b888b09613080528b848709613780528b8388096130a0528b826131005109613140528b8188096130c052505050505050505050505061264051506126005161262051828361190051840982611620510101846118e051850983611600510101098384611940518509836116605101018561192051860984611640510101098485868385096116a051096134805109858661198051870985611620510101876119605188098661160051010109925085866119c051870985611660510101876119a0518809866116405101010991508586878885870961208051096134805109870382089050856126405161348051096134805285868788613060518a0361208051086130c0510961348051098208905085612640516134805109613480528586878860018a036116a051086130a05109613480510982086136005250505050508061264051613480510961348052806117205161266051098182836120205161178051096116405108820890508161266051820990508182836120005161176051096116205108820890508161266051820990508182836119e0516117005109611600510882089050816118405183846126605161186051098586612680516118805109876126a0516118a05109080808826120c0518485612660516120e051098687612680516121005109886126a051612120510908080883846001612600510861262051098461262051866118c051870908935084818687612600518609860808925084838509935084856001612600510885099350846130a05161264051099250848385089350846116c0518509935084838603850893508481868761260051612060510961168051080892505050826130c05161342051098381850383089150836120a05183099150838461314051830983089150508261348051848386038508096136205250508061344051613480510961348052806116e0516116005109816117005161162051098261172051611640510983611740516116605109847f183227397098d014dc2822db40c0ac2e9419f4243cdcb848a1f0fac9f80000008687600389036117a0510888611760518a6116205161160051090909098586878889858a08880886088408611780510894505050505081828384856116605161160051086119e051870308611760510884600286036117a05108096126405109828384858685612040510887600189036117a051080985086117a05109613480510961364052505080613420516134805109613480526002810360038203826116005184036116205108836116205185036116405108846116405186036116605108856116605187036119e05108866134805188898888088a8b8b8a088c8a8e038e8c8d09080909099350868788612640516134805109898a8988088b8c8c8a088d8a8f038f8c8d090809090985089350868788613420516134805109898a8987088b8c8c89088d898f038f8b8c090809090985089350868788613440516134805109898a8986088b8c8c88088d888f038f8a8b090809090985089350505050836117c051820961366052505061346051613480518392500961348052806116205182036119e051088161204051612040510982611640516116405109836116e05185612040516116405109098485868384088785870888030886878788098889611620516119e0510861200051080908925050508261348051848561176051870360010884090990508261202051611640510883611640518503856116e05161204051090884858287611620518903612000510809868685090893505050828361264051613480510984856117605187036001088509099150826117e0518484840809613680525050806116205161162051098161164051611640510982611620518460118408098360048309915083600982099050836003840992508381850385848788611620516116205108612000510809089150508283846120205161164051088561164051611640510809840384856120005187036116205108850908915082613480518209905082836126405161348051098309915082611760518209905082611760518309915082836117e0518585850809613680510861368052505080613460516134805109613480528081611620516119e05109826120005161160051090881612020518303838461164051611620510985611660516116005109080882681000000000000000008209905082612040518403820890508282820890508261174051820990508268100000000000000000830991508283612000516119e05109830891508261172051848561166051611640510886038508098361176051858661204051612020510887038761166051880808099250836117005185858786860808096136c0525050612000518291506140009009816119e0518208905081614000820990508161164051820890508161400082099050816116205182089050816140008209905081611600518208905081611660518303820890508161174051820990508161400061202051098261200051820890508261400082099050826119e05182089050826140008209905082611660518208905082614000820990508261164051820890508261204051840382089050826117605182099050826117205184838508096136e0525050806126605161164051098161162051820890508161266051820990508161160051820890508161266051820990508161178051820890508082611660518403830891508161374052826116005184036119e05108836116605185036120405108848560018703840883098586848803600108830991508585876126405189858b61264051890908090861372052856126605161202051099450856120005186089450856126605186099450856119e0518608945085612660518609945085858703612040510894508561164051870361202051089150858687878903600108840987858903600108099150858487036116605108868760018903830882099050868760018903880887099550866126405184099250868284089250866126405184099250868684089250866126405184099250868184089250508161370052505083611620518503612000510892508361164051850385868488036001088609089250836117005161372051099150838461174051850983089150838461176051613740510983089150836116e0518309915083846117a051613700510983089150836136c05183089250836136e05184089250836118005184099250836134805184099250826136a05283613440516134805109613480525050508061378051826136a0518461368051866136605188613640518a61362051613600510808080808096137608190526126e0516137a08190526137c0919091526102e460043501610520816137e03750506105606137a020818106612700526000819052600160205381602160002006612720526002602053816021600020066127405260036020538160216000200661276052600460205381602160002006612780526005602053816021600020066127a0526006602053816021600020066127c0526007602053816021600020066127e0526008602053816021600020066128005260096020538160216000200661282052600a6020538160216000200661284052600b6020538160216000200661286052600c6020538160216000200661288052600d602053816021600020066128a052600e602053816021600020066128c052600f602053816021600020066128e05260106020538160216000200661290052601160205381602160002006612920526012602053816021600020066129405260136020538160216000200661296052601460205381602160002006612980526015602053816021600020066129a0526016602053816021600020066129c0526017602053816021600020066129e052601860205381602160002006612a0052601960205381602160002006612a2052601a60205381602160002006612a4052601b60205381602160002006612a6052601c60205381602160002006612a8052601d60205381602160002006612aa052601d6020535060216000908120828106612ac05281526123205160205261230051604052612360516060526123405160805260a08120829006612b00526113c0516113e0518482800985600387838609088683840914935050816131605280602061316001525050611400516114205184828309856003878386090886838409148416935050816000528060205250506130405160405260406131a06060600060075afa16604061316060808160065afa81169050611440516114605184828309856003878386090886838409148416935050816000528060205250508161304051613040510960405260406131a06060600060075afa16604061316060808160065afa81169050611480516114a05184828309856003878386090886838409148416935050816000528060205250508161304051836130405161304051090960405260406131a06060600060075afa16604061316060808160065afa81169050611200516112205184828309856003878386090886838409148416935050816000528060205250508161270051836001612b0051080960405260406131a06060600060075afa16604061316060808160065afa81169050611240516112605184828309856003878386090886838409148416935050816000528060205250508161272051836001612b0051080960405260406131a06060600060075afa16604061316060808160065afa81169050611280516112a05184828309856003878386090886838409148416935050816000528060205250508161274051836001612b0051080960405260406131a06060600060075afa16604061316060808160065afa811690506112c0516112e05184828309856003878386090886838409148416935050816000528060205250508161276051836001612b0051080960405260406131a06060600060075afa16604061316060808160065afa81169050611300516113205184828309856003878386090886838409148416935050816000528060205250508161278051836001612b0051080960405260406131a06060600060075afa16604061316060808160065afa8116905061134051611360518482830985600387838609088683840914841693505081600052806020525050816127a051836001612b0051080960405260406131a06060600060075afa16604061316060808160065afa81169050611380516113a0518482830985600387838609088683840914841693505081600052806020525050816127c051836001612b0051080960405260406131a06060600060075afa16604061316060808160065afa81169050610400516104205184828309856003878386090886838409148416935050816000528060205250506127e05160405260406131a06060600060075afa16604061316060808160065afa81169050610440516104605184828309856003878386090886838409148416935050816000528060205250506128005160405260406131a06060600060075afa16604061316060808160065afa81169050610480516104a05184828309856003878386090886838409148416935050816000528060205250506128205160405260406131a06060600060075afa16604061316060808160065afa811690506104c0516104e05184828309856003878386090886838409148416935050816000528060205250506128405160405260406131a06060600060075afa16604061316060808160065afa81169050610500516105205184828309856003878386090886838409148416935050816000528060205250506128605160405260406131a06060600060075afa16604061316060808160065afa81169050610540516105605184828309856003878386090886838409148416935050816000528060205250506128805160405260406131a06060600060075afa16604061316060808160065afa81169050610580516105a05184828309856003878386090886838409148416935050816000528060205250506128a05160405260406131a06060600060075afa16604061316060808160065afa811690506105c0516105e05184828309856003878386090886838409148416935050816000528060205250506128c05160405260406131a06060600060075afa16604061316060808160065afa81169050610600516106205184828309856003878386090886838409148416935050816000528060205250506128e05160405260406131a06060600060075afa16604061316060808160065afa81169050610640516106605184828309856003878386090886838409148416935050816000528060205250506129005160405260406131a06060600060075afa16604061316060808160065afa81169050610680516106a05184828309856003878386090886838409148416935050816000528060205250506129205160405260406131a06060600060075afa16604061316060808160065afa811690506106c0516106e05184828309856003878386090886838409148416935050816000528060205250506129405160405260406131a06060600060075afa16604061316060808160065afa81169050610700516107205184828309856003878386090886838409148416935050816000528060205250506129605160405260406131a06060600060075afa16604061316060808160065afa81169050610740516107605184828309856003878386090886838409148416935050816000528060205250506129805160405260406131a06060600060075afa16604061316060808160065afa81169050610780516107a0518482830985600387838609088683840914841693505081600052806020525050816129a051836001612b0051080960405260406131a06060600060075afa16604061316060808160065afa811690506107c0516107e0518482830985600387838609088683840914841693505081600052806020525050816129c051836001612b0051080960405260406131a06060600060075afa16604061316060808160065afa8116905061080051610820518482830985600387838609088683840914841693505081600052806020525050816129e051836001612b0051080960405260406131a06060600060075afa16604061316060808160065afa811690506108405161086051848283098560038783860908868384091484169350508160005280602052505081612a0051836001612b0051080960405260406131a06060600060075afa16604061316060808160065afa81169050610880516108a0518482830985600387838609088683840914841693505081600052806020525050612a205160405260406131a06060600060075afa16604061316060808160065afa811690506108c0516108e0518482830985600387838609088683840914841693505081600052806020525050612a405160405260406131a06060600060075afa16604061316060808160065afa8116905061090051610920518482830985600387838609088683840914841693505081600052806020525050612a605160405260406131a06060600060075afa16604061316060808160065afa8116905061094051610960518482830985600387838609088683840914841693505081600052806020525050612a805160405260406131a06060600060075afa16604061316060808160065afa81169050610980516109a0518482830985600387838609088683840914841693505081600052806020525050612aa05160405260406131a06060600060075afa16604061316060808160065afa8116905081826116005184612b00516119e051090861270051098283846116205186612b00516120005109086127205109820890508283846116405186612b00516120205109086127405109820890508283846116605186612b00516120405109086127605109820890508283846116805186612b00516120605109086127805109820890508283846116a05186612b00516120805109086127a05109820890508283846116c05186612b00516120a05109086127c051098208905082836116e0516127e051098208905082836117005161280051098208905082836117205161282051098208905082836117405161284051098208905082836117605161286051098208905082836117805161288051098208905082836117a0516128a051098208905082836117c0516128c051098208905082836117e0516128e051098208905082836118005161290051098208905082836119605161292051098208905082836119805161294051098208905082836119a05161296051098208905082836119c0516129805109820890508283846118405186612b00516120c05109086129a05109820890508283846118605186612b00516120e05109086129c05109820890508283846118805186612b00516121005109086129e05109820890508283846118a05186612b0051612120510908612a0051098208905082836118c051612a2051098208905082836118e051612a40510982089050828361190051612a60510982089050828361192051612a80510982089050828361194051612aa0510982089050826137605182089050600160005260026020528083036040525060406131a06060600060075afa16604061316060808160065afa16613360819052612b00516126c05161230051612320518682800987600389838609088883840914955050816000528060205250508060405260406131a06060600060075afa831692506040613160608061316060065afa8316925061234051612360518682830987600389838609088883840914861695505081600052806020525050836103c05185838509096040525060406131a06060600060075afa821691506040613220608061316060065afa8216915061230051600052612320516020526123405160405261236051606052806080526040806060604060075afa8216915060406131e06080600060065afa82169150613200518403613200526109c05115612b825761350051613520518582830986600388838609088783840914851694505081600052806020525050828182096040526040606080600060075afa8216915061354051613560518582830986600388838609088783840914851694505081600052806020525050604060006060600060075afa821691506132205160a0526132405160c05260406132206080606060065afa821691506131e0516040526132005160605260406131e06080600060065afa821691505b5080612bb2577ff755f3690000000000000000000000000000000000000000000000000000000060005260046000fd5b806133805261322051600052613240516020527f198e9393920d483a7260bfb731fb5d25f1aa493335a9e71297e485b7aef312c26040527f1800deef121f1e76426a00665e5c4479674322d4f75edadd46debd5cd992f6ed6060527f090689d0585ff075ec9e99ad690c3395bc4b313370b38ef355acdadcd122975b6080527f12c85ea5db8c6deb4aab71808dcb408fe3d1e7690c43d37b4ce6cc0166fa7daa60a0526131e05160c0526132005160e052610a005161010052610a205161012052610a405161014052610a60516101605260206000610180600060085afa9050806133a0526000516133c05250505061336051613380516133c0516133a051161616612ce2577f0711fcec0000000000000000000000000000000000000000000000000000000060005260046000fd5b600160005260206000f35b60008060008060408587031215612d0357600080fd5b843567ffffffffffffffff80821115612d1b57600080fd5b818701915087601f830112612d2f57600080fd5b813581811115612d3e57600080fd5b886020828501011115612d5057600080fd5b602092830196509450908601359080821115612d6b57600080fd5b818701915087601f830112612d7f57600080fd5b813581811115612d8e57600080fd5b8860208260051b8501011115612da357600080fd5b9598949750506020019450505056fea26469706673582212205ebe238d9b9ce48bcabafd327e2d4a941be0a5ad1222ffde6dc8bdd5b813cb2764736f6c63430008120033","opcodes":"PUSH1 0x80 PUSH1 0x40 MSTORE CALLVALUE DUP1 ISZERO PUSH2 0x10 JUMPI PUSH1 0x0 DUP1 REVERT JUMPDEST POP PUSH2 0x2DE8 DUP1 PUSH2 0x20 PUSH1 0x0 CODECOPY PUSH1 0x0 RETURN INVALID PUSH1 0x80 PUSH1 0x40 MSTORE CALLVALUE DUP1 ISZERO PUSH2 0x10 JUMPI PUSH1 0x0 DUP1 REVERT JUMPDEST POP PUSH1 0x4 CALLDATASIZE LT PUSH2 0x36 JUMPI PUSH1 0x0 CALLDATALOAD PUSH1 0xE0 SHR DUP1 PUSH4 0x937F6A10 EQ PUSH2 0x3B JUMPI DUP1 PUSH4 0xEA50D0E4 EQ PUSH2 0x6E JUMPI JUMPDEST PUSH1 0x0 DUP1 REVERT JUMPDEST PUSH1 0x40 MLOAD PUSH32 0xB15FB4635B40C66F71DF2810BD1670080691F5C34CF835C95491ABE37B3F0598 DUP2 MSTORE PUSH1 0x20 ADD JUMPDEST PUSH1 0x40 MLOAD DUP1 SWAP2 SUB SWAP1 RETURN JUMPDEST PUSH2 0x81 PUSH2 0x7C CALLDATASIZE PUSH1 0x4 PUSH2 0x2CED JUMP JUMPDEST PUSH2 0x91 JUMP JUMPDEST PUSH1 0x40 MLOAD SWAP1 ISZERO ISZERO DUP2 MSTORE PUSH1 0x20 ADD PUSH2 0x65 JUMP JUMPDEST PUSH3 0x40000 PUSH2 0x380 MSTORE PUSH1 0x10 PUSH2 0x3A0 MSTORE PUSH32 0x19DDBCAF3A8D46C15C0176FBB5B95E4DC57088FF13F4D1BD84C6BFA57DCDC0E0 PUSH2 0x3C0 MSTORE PUSH32 0x30644259CD94E7DD5045D7A27013B7FCD21C9E3B7FA75222E7BDA49B729B0401 PUSH2 0x3E0 MSTORE PUSH32 0x12F435EAFE25E8EAE4FB50871DF2E4CC6BAC4D8A1E00C33378BD4E0306D7CAF0 PUSH2 0x400 MSTORE PUSH32 0x2177E7D2C61C8BFC6381EB3946119F7DF04B1DD7819146D5D2BF6D947E5B581D PUSH2 0x420 MSTORE PUSH32 0x281C3DB6AD09EA7C4034FF3742705ABE2258746E7557F6708254730AB80C24A1 PUSH2 0x440 MSTORE PUSH32 0xB9D8D7ADC240EFBA474F4ADC2B3BDE5E2653FE9AEE015034171A4A08055F2BB PUSH2 0x460 MSTORE PUSH32 0x14CA6D2277D046BFEC277680AAEF68C036229345162DC5898D4C59C48AF3050C PUSH2 0x480 MSTORE PUSH32 0x193076249EF903F84326DEF1F71F3E0F8964D6AD9B8169B10373534C5D8CE3A PUSH2 0x4A0 MSTORE PUSH32 0x19B321F51F228BDA6233253F630BD7A4EF8886B0B0B04B8AA5DAE7DE26262741 PUSH2 0x4C0 MSTORE PUSH32 0x29E642B2B28BB28117BF91A05F4072BE4AA7B9E461A30A8B512C9CE550B8BD11 PUSH2 0x4E0 MSTORE PUSH32 0x135C2B4CA117CAD1E6DE43B35922898F10A215CA4BD212FB235B11F749747A40 PUSH2 0x500 MSTORE PUSH32 0x1B5898CBFAD83193F396BAA1B97D270788E813AFEB2A55342F4E01118D7C8D52 PUSH2 0x520 MSTORE PUSH32 0x1E0239D0219E156E4E28985351AE5DC22BDA34EC57C95CFABA4B5982D348FC1C PUSH2 0x540 MSTORE PUSH32 0x26A95879623A997FB620EC7580A2BB9E8FAD9DE515D06C347C8F80946FC77AFF PUSH2 0x560 MSTORE PUSH32 0x19A7EAC100B5595212359CDB4F7BFF4E070301FD5C4C43FE9B99168BBDF2675B PUSH2 0x580 MSTORE PUSH32 0x1C80926658A57D201893968D1561E78E4DDAE6F9EF1DFB6BCFA9A5FB4189FC73 PUSH2 0x5A0 MSTORE PUSH32 0x23E5FFF3120C5D1FE27A55EA387D4463D6466BE8067E194B3FB73A9F7DE7669D PUSH2 0x5C0 MSTORE PUSH32 0x2722444F9B1399D5B0E0827663CF997BCA66C8100EFD1A82B3E5E86A58824772 PUSH2 0x5E0 MSTORE PUSH32 0x26BA1F4D0E050A78621B511228A9C6983F7868DDE8D03A3206BA8ECB4745228C PUSH2 0x600 MSTORE PUSH31 0xE496FBCD18C30EFCA8BBAB288382270E7C1CA730A6DE1C97F1FDB8E8CBB8AE PUSH2 0x620 MSTORE PUSH32 0x2EFC9A610AB04F1C658187C81CB58DB4A17436B03796BD124E7715B628F57E3C PUSH2 0x640 MSTORE PUSH32 0x10A6E11E2EA7B3EC9A77BBFB6E88FFD6F8377903F7D5FFBF3501748F20671955 PUSH2 0x660 MSTORE PUSH32 0x4155580C5DC38E8F1D4DF4CA249A8738F8E8E8E22DF58D6AE7004A8A6FD167C PUSH2 0x680 MSTORE PUSH32 0x1B64423D62AA3DEB0CFC2825CBC47FB3B3FF013643455A70B0B1629A9305F3A0 PUSH2 0x6A0 MSTORE PUSH32 0x19D86A7FC2959F042FC31AAC54955B776359A460E5DFCE5D02259A7F1E0B7662 PUSH2 0x6C0 MSTORE PUSH32 0x1F4968620F372F7DFDE9834AA7C2F210AA40FEE7F79E367D7EF8D60BCA663A8D PUSH2 0x6E0 MSTORE PUSH32 0x2D8EBA056A24B59399F7ED31ECD46B22B64802B0E7C70A964937C7A1FC4668C7 PUSH2 0x700 MSTORE PUSH32 0x5C206FFB3FE5360E2EC2D9328B762415441101D004C2923A04F5F8FB6758AB5 PUSH2 0x720 MSTORE PUSH32 0x1E722D7FEC1119559C0657FFF711E9649F4B3FE44F230A3374EC07E917AF3696 PUSH2 0x740 MSTORE PUSH32 0x27FB5FF9C285212A9CA0A55B4E4FE97CF380902A85BE9CDD8C0222101EE25967 PUSH2 0x760 MSTORE PUSH32 0x9796190FD3BA909C6530C89811DF9B5B4F5F2FE6501EC21DD864B20673FC02C PUSH2 0x780 MSTORE PUSH31 0xB9C2423E310CAA43E1EB83B55F53977FCCBED85422DF8935635D77D146BF39 PUSH2 0x7A0 MSTORE PUSH32 0x217DAD26CCC0C543EC5750513E9365A5CAE8164B08D364EFCF4B5890FF05F334 PUSH2 0x7C0 MSTORE PUSH32 0x1DB28433F6BDE424423F3587787F81C48101D2DC6E54B431332CB275F8518C62 PUSH2 0x7E0 MSTORE PUSH32 0x2CC2D90F2DA7F4EC16B7FE61BABD4FB9B580ECFF03C471764DD67A8C433AFAB5 PUSH2 0x800 MSTORE PUSH32 0x3032B9FF096A43CE326CC63FFC6A86DCB913FB1F7700939F5304F6C6BEB24574 PUSH2 0x820 MSTORE PUSH32 0x1F4C58502CA713ED0BFFB4FF31ED55E557E83A37D31B8E703AA9219D6158E2D2 PUSH2 0x840 MSTORE PUSH32 0xB0D5ED5432C5E7B56344C1D26CE0D9F632E8F8AA52505D6C89F6DA89F357FA8 PUSH2 0x860 MSTORE PUSH32 0x18F58F41D54253E53E11E950A30712A53AC21C410A53424CF08B5C866AA18EF7 PUSH2 0x880 MSTORE PUSH32 0x85B844A9B90E6D79F01271644B9CBC23F81CCCB1679DDB7C4CF28F525FF41AD PUSH2 0x8A0 MSTORE PUSH32 0xF8D9D7A2B2983C8369F37B97A9B31C262E7D1C6A50F51FE47F67C9AF7D86EA6 PUSH2 0x8C0 MSTORE PUSH32 0xE26A6784CF575D142A4080549F5B64CDC836C4BDE49BEC6D5E23519F4EBDE27 PUSH2 0x8E0 MSTORE PUSH32 0xA64BE375589DFFF55FB56B5B26CFB28BF3F9AB334408D13D691902F26444DBD PUSH2 0x900 MSTORE PUSH32 0x2A1F361DD187CBB1A94AC87B3ADBD6468DFCDB5CB0E158720300F0D882B1F6CB PUSH2 0x920 MSTORE PUSH32 0x15CC223624168806265236CA0E28F0E8D5CE99BEDCF4A471674D0B287C1B7D22 PUSH2 0x940 MSTORE PUSH32 0x47E6DA9BEA49A99709D80DD68CCA1EBEE1948A979D6C758914FDCD71EDBA3EC PUSH2 0x960 MSTORE PUSH32 0x16FEA77329FBB4B48BF01135AAFF082061156E890CE6ECECC9F531A7AE921EFC PUSH2 0x980 MSTORE PUSH32 0x15B50D6045D79861FF95A63C98FE6F87D8E1E46F9893D01FF30E8695132BEB29 PUSH2 0x9A0 MSTORE PUSH1 0x1 PUSH2 0x9C0 MSTORE PUSH1 0x0 PUSH2 0x9E0 DUP2 SWAP1 MSTORE PUSH32 0x260E01B251F6F1C7E7FF4E580791DEE8EA51D87A358E038B4EFE30FAC09383C1 PUSH2 0xA00 MSTORE PUSH32 0x118C4D5B837BCC2BC89B5B398B5974E9F5944073B32078B7E231FEC938883B0 PUSH2 0xA20 MSTORE PUSH32 0x4FC6369F7110FE3D25156C1BB9A72859CF2A04641F99BA4EE413C80DA6A5FE4 PUSH2 0xA40 MSTORE PUSH32 0x22FEBDA3C0C0632A56475B4214E5615E11E6DD3F96E6CEA2854A87D4DACC5E55 PUSH2 0xA60 MSTORE PUSH32 0x36853F083780E87F8D7C71D111119C57DBE118C22D5AD707A82317466C5174C PUSH2 0x3400 MSTORE PUSH2 0x3A0 MLOAD DUP3 DUP2 EQ PUSH2 0x89F JUMPI PUSH1 0x40 MLOAD PUSH32 0x7667DC9B00000000000000000000000000000000000000000000000000000000 DUP2 MSTORE PUSH1 0x4 DUP2 ADD DUP3 SWAP1 MSTORE PUSH1 0x24 DUP2 ADD DUP5 SWAP1 MSTORE PUSH1 0x44 ADD PUSH1 0x40 MLOAD DUP1 SWAP2 SUB SWAP1 REVERT JUMPDEST PUSH32 0x30644E72E131A029B85045B68181585D97816A916871CA8D3C208C16D87CFD47 PUSH32 0x30644E72E131A029B85045B68181585D2833E84879B9709143E1F593F0000001 PUSH1 0x24 PUSH1 0x4 CALLDATALOAD ADD DUP3 DUP2 CALLDATALOAD MOD PUSH2 0x1220 MSTORE DUP3 PUSH1 0x20 DUP3 ADD CALLDATALOAD MOD PUSH2 0x1200 MSTORE DUP3 PUSH1 0x40 DUP3 ADD CALLDATALOAD MOD PUSH2 0x1260 MSTORE DUP3 PUSH1 0x60 DUP3 ADD CALLDATALOAD MOD PUSH2 0x1240 MSTORE DUP3 PUSH1 0x80 DUP3 ADD CALLDATALOAD MOD PUSH2 0x12A0 MSTORE DUP3 PUSH1 0xA0 DUP3 ADD CALLDATALOAD MOD PUSH2 0x1280 MSTORE DUP3 PUSH1 0xC0 DUP3 ADD CALLDATALOAD MOD PUSH2 0x12E0 MSTORE DUP3 PUSH1 0xE0 DUP3 ADD CALLDATALOAD MOD PUSH2 0x12C0 MSTORE DUP3 PUSH2 0x100 DUP3 ADD CALLDATALOAD MOD PUSH2 0x1320 MSTORE DUP3 PUSH2 0x120 DUP3 ADD CALLDATALOAD MOD PUSH2 0x1300 MSTORE DUP3 PUSH2 0x140 DUP3 ADD CALLDATALOAD MOD PUSH2 0x1360 MSTORE DUP3 PUSH2 0x160 DUP3 ADD CALLDATALOAD MOD PUSH2 0x1340 MSTORE DUP3 PUSH2 0x180 DUP3 ADD CALLDATALOAD MOD PUSH2 0x13A0 MSTORE DUP3 PUSH2 0x1A0 DUP3 ADD CALLDATALOAD MOD PUSH2 0x1380 MSTORE DUP3 PUSH2 0x1C0 DUP3 ADD CALLDATALOAD MOD PUSH2 0x13E0 MSTORE DUP3 PUSH2 0x1E0 DUP3 ADD CALLDATALOAD MOD PUSH2 0x13C0 MSTORE DUP3 PUSH2 0x200 DUP3 ADD CALLDATALOAD MOD PUSH2 0x1420 MSTORE DUP3 PUSH2 0x220 DUP3 ADD CALLDATALOAD MOD PUSH2 0x1400 MSTORE DUP3 PUSH2 0x240 DUP3 ADD CALLDATALOAD MOD PUSH2 0x1460 MSTORE DUP3 PUSH2 0x260 DUP3 ADD CALLDATALOAD MOD PUSH2 0x1440 MSTORE DUP3 PUSH2 0x280 DUP3 ADD CALLDATALOAD MOD PUSH2 0x14A0 MSTORE DUP3 PUSH2 0x2A0 DUP3 ADD CALLDATALOAD MOD PUSH2 0x1480 MSTORE DUP2 PUSH2 0x2C0 DUP3 ADD CALLDATALOAD MOD PUSH2 0x1600 MSTORE DUP2 PUSH2 0x2E0 DUP3 ADD CALLDATALOAD MOD PUSH2 0x1620 MSTORE DUP2 PUSH2 0x300 DUP3 ADD CALLDATALOAD MOD PUSH2 0x1640 MSTORE DUP2 PUSH2 0x320 DUP3 ADD CALLDATALOAD MOD PUSH2 0x1660 MSTORE DUP2 PUSH2 0x340 DUP3 ADD CALLDATALOAD MOD PUSH2 0x1680 MSTORE DUP2 PUSH2 0x360 DUP3 ADD CALLDATALOAD MOD PUSH2 0x16A0 MSTORE DUP2 PUSH2 0x380 DUP3 ADD CALLDATALOAD MOD PUSH2 0x16C0 MSTORE DUP2 PUSH2 0x3A0 DUP3 ADD CALLDATALOAD MOD PUSH2 0x16E0 MSTORE DUP2 PUSH2 0x3C0 DUP3 ADD CALLDATALOAD MOD PUSH2 0x1700 MSTORE DUP2 PUSH2 0x3E0 DUP3 ADD CALLDATALOAD MOD PUSH2 0x1720 MSTORE DUP2 PUSH2 0x400 DUP3 ADD CALLDATALOAD MOD PUSH2 0x1740 MSTORE DUP2 PUSH2 0x420 DUP3 ADD CALLDATALOAD MOD PUSH2 0x1760 MSTORE DUP2 PUSH2 0x440 DUP3 ADD CALLDATALOAD MOD PUSH2 0x1780 MSTORE DUP2 PUSH2 0x460 DUP3 ADD CALLDATALOAD MOD PUSH2 0x17A0 MSTORE DUP2 PUSH2 0x480 DUP3 ADD CALLDATALOAD MOD PUSH2 0x17C0 MSTORE DUP2 PUSH2 0x4A0 DUP3 ADD CALLDATALOAD MOD PUSH2 0x17E0 MSTORE DUP2 PUSH2 0x4C0 DUP3 ADD CALLDATALOAD MOD PUSH2 0x1800 MSTORE DUP2 PUSH2 0x4E0 DUP3 ADD CALLDATALOAD MOD PUSH2 0x1960 MSTORE DUP2 PUSH2 0x500 DUP3 ADD CALLDATALOAD MOD PUSH2 0x1980 MSTORE DUP2 PUSH2 0x520 DUP3 ADD CALLDATALOAD MOD PUSH2 0x19A0 MSTORE DUP2 PUSH2 0x540 DUP3 ADD CALLDATALOAD MOD PUSH2 0x19C0 MSTORE DUP2 PUSH2 0x560 DUP3 ADD CALLDATALOAD MOD PUSH2 0x1840 MSTORE DUP2 PUSH2 0x580 DUP3 ADD CALLDATALOAD MOD PUSH2 0x1860 MSTORE DUP2 PUSH2 0x5A0 DUP3 ADD CALLDATALOAD MOD PUSH2 0x1880 MSTORE DUP2 PUSH2 0x5C0 DUP3 ADD CALLDATALOAD MOD PUSH2 0x18A0 MSTORE DUP2 PUSH2 0x5E0 DUP3 ADD CALLDATALOAD MOD PUSH2 0x18C0 MSTORE DUP2 PUSH2 0x600 DUP3 ADD CALLDATALOAD MOD PUSH2 0x18E0 MSTORE DUP2 PUSH2 0x620 DUP3 ADD CALLDATALOAD MOD PUSH2 0x1900 MSTORE DUP2 PUSH2 0x640 DUP3 ADD CALLDATALOAD MOD PUSH2 0x1920 MSTORE DUP2 PUSH2 0x660 DUP3 ADD CALLDATALOAD MOD PUSH2 0x1940 MSTORE DUP2 PUSH2 0x680 DUP3 ADD CALLDATALOAD MOD PUSH2 0x19E0 MSTORE DUP2 PUSH2 0x6A0 DUP3 ADD CALLDATALOAD MOD PUSH2 0x2000 MSTORE DUP2 PUSH2 0x6C0 DUP3 ADD CALLDATALOAD MOD PUSH2 0x2020 MSTORE DUP2 PUSH2 0x6E0 DUP3 ADD CALLDATALOAD MOD PUSH2 0x2040 MSTORE DUP2 PUSH2 0x700 DUP3 ADD CALLDATALOAD MOD PUSH2 0x2060 MSTORE DUP2 PUSH2 0x720 DUP3 ADD CALLDATALOAD MOD PUSH2 0x2080 MSTORE DUP2 PUSH2 0x740 DUP3 ADD CALLDATALOAD MOD PUSH2 0x20A0 MSTORE DUP2 PUSH2 0x760 DUP3 ADD CALLDATALOAD MOD PUSH2 0x20C0 MSTORE DUP2 PUSH2 0x780 DUP3 ADD CALLDATALOAD MOD PUSH2 0x20E0 MSTORE DUP2 PUSH2 0x7A0 DUP3 ADD CALLDATALOAD MOD PUSH2 0x2100 MSTORE DUP2 PUSH2 0x7C0 DUP3 ADD CALLDATALOAD MOD PUSH2 0x2120 MSTORE DUP3 PUSH2 0x7E0 DUP3 ADD CALLDATALOAD MOD PUSH2 0x2320 MSTORE DUP3 PUSH2 0x800 DUP3 ADD CALLDATALOAD MOD PUSH2 0x2300 MSTORE DUP3 PUSH2 0x820 DUP3 ADD CALLDATALOAD MOD PUSH2 0x2360 MSTORE DUP3 PUSH2 0x840 DUP3 ADD CALLDATALOAD MOD PUSH2 0x2340 MSTORE POP PUSH2 0x9C0 MLOAD ISZERO PUSH2 0xD1A JUMPI PUSH1 0x24 DUP1 CALLDATALOAD ADD DUP1 PUSH2 0x9E0 MLOAD PUSH1 0x5 SHL ADD SWAP1 POP DUP1 CALLDATALOAD PUSH1 0x20 DUP3 ADD CALLDATALOAD PUSH1 0x44 SHL DUP2 ADD SWAP1 POP PUSH1 0x40 DUP3 ADD CALLDATALOAD PUSH1 0x88 SHL DUP2 ADD SWAP1 POP PUSH1 0x60 DUP3 ADD CALLDATALOAD PUSH1 0xCC SHL DUP2 ADD SWAP1 POP PUSH1 0x80 DUP3 ADD CALLDATALOAD PUSH1 0xA0 DUP4 ADD CALLDATALOAD PUSH1 0x44 SHL DUP2 ADD SWAP1 POP PUSH1 0xC0 DUP4 ADD CALLDATALOAD PUSH1 0x88 SHL DUP2 ADD SWAP1 POP PUSH1 0xE0 DUP4 ADD CALLDATALOAD PUSH1 0xCC SHL DUP2 ADD SWAP1 POP PUSH2 0x100 DUP4 ADD CALLDATALOAD PUSH2 0x120 DUP5 ADD CALLDATALOAD PUSH1 0x44 SHL DUP2 ADD SWAP1 POP PUSH2 0x140 DUP5 ADD CALLDATALOAD PUSH1 0x88 SHL DUP2 ADD SWAP1 POP PUSH2 0x160 DUP5 ADD CALLDATALOAD PUSH1 0xCC SHL DUP2 ADD SWAP1 POP PUSH2 0x180 DUP5 ADD CALLDATALOAD PUSH2 0x1A0 DUP6 ADD CALLDATALOAD PUSH1 0x44 SHL DUP2 ADD SWAP1 POP PUSH2 0x1C0 DUP6 ADD CALLDATALOAD PUSH1 0x88 SHL DUP2 ADD SWAP1 POP PUSH2 0x1E0 DUP6 ADD CALLDATALOAD PUSH1 0xCC SHL DUP2 ADD SWAP1 POP DUP4 PUSH2 0x3500 MSTORE DUP3 PUSH2 0x3520 MSTORE DUP2 PUSH2 0x3540 MSTORE DUP1 PUSH2 0x3560 MSTORE DUP7 DUP2 LT DUP8 DUP5 LT AND DUP8 DUP4 LT DUP9 DUP7 LT AND AND PUSH2 0xD14 JUMPI PUSH32 0xEBA9F4A600000000000000000000000000000000000000000000000000000000 PUSH1 0x0 MSTORE PUSH1 0x4 PUSH1 0x0 REVERT JUMPDEST POP POP POP POP POP JUMPDEST PUSH2 0x380 MLOAD PUSH1 0xE0 SHL PUSH1 0x0 MSTORE PUSH2 0x3A0 MLOAD PUSH1 0xE0 SHL PUSH1 0x4 MSTORE PUSH1 0x8 PUSH1 0x0 KECCAK256 DUP1 PUSH2 0x3580 MSTORE PUSH1 0x24 DUP1 CALLDATALOAD ADD PUSH1 0x20 PUSH2 0x3A0 MLOAD MUL DUP1 DUP3 PUSH1 0x20 PUSH2 0x3580 ADD CALLDATACOPY PUSH1 0x4 CALLDATALOAD PUSH1 0x24 ADD SWAP2 POP PUSH1 0xC0 DUP3 PUSH2 0x35A0 DUP4 ADD CALLDATACOPY PUSH1 0xE0 ADD PUSH2 0x3580 KECCAK256 DUP4 DUP2 MOD PUSH2 0x2660 DUP2 SWAP1 MSTORE SWAP1 SWAP3 POP SWAP1 POP DUP3 DUP2 DUP1 MULMOD PUSH2 0x2680 MSTORE DUP3 DUP2 PUSH2 0x2680 MLOAD MULMOD PUSH2 0x26A0 MSTORE POP DUP1 PUSH1 0x0 MSTORE PUSH2 0x12E0 MLOAD PUSH1 0x20 MSTORE PUSH2 0x12C0 MLOAD PUSH1 0x40 MSTORE PUSH2 0x1320 MLOAD PUSH1 0x60 MSTORE PUSH2 0x1300 MLOAD PUSH1 0x80 MSTORE PUSH1 0xA0 PUSH1 0x0 KECCAK256 SWAP1 POP DUP2 DUP2 MOD PUSH2 0x2600 MSTORE DUP1 PUSH1 0x0 MSTORE PUSH1 0x1 PUSH1 0x20 MSTORE8 POP PUSH1 0x21 PUSH1 0x0 SWAP1 DUP2 KECCAK256 DUP3 DUP2 MOD PUSH2 0x2620 MSTORE DUP2 MSTORE PUSH2 0x1360 MLOAD PUSH1 0x20 MSTORE PUSH2 0x1340 MLOAD PUSH1 0x40 MSTORE PUSH2 0x13A0 MLOAD PUSH1 0x60 MSTORE PUSH2 0x1380 MLOAD PUSH1 0x80 MSTORE PUSH1 0xA0 SWAP1 KECCAK256 DUP2 DUP2 MOD PUSH2 0x2640 DUP2 SWAP1 MSTORE DUP3 DUP2 DUP1 MULMOD PUSH2 0x3420 MSTORE DUP3 DUP2 PUSH2 0x3420 MLOAD MULMOD PUSH2 0x3440 MSTORE DUP3 DUP2 PUSH2 0x3440 MLOAD MULMOD PUSH2 0x3460 MSTORE DUP1 PUSH2 0x3480 MSTORE POP DUP1 PUSH1 0x0 MSTORE PUSH2 0x13E0 MLOAD PUSH1 0x20 MSTORE PUSH2 0x13C0 MLOAD PUSH1 0x40 MSTORE PUSH2 0x1420 MLOAD PUSH1 0x60 MSTORE PUSH2 0x1400 MLOAD PUSH1 0x80 MSTORE PUSH2 0x1460 MLOAD PUSH1 0xA0 MSTORE PUSH2 0x1440 MLOAD PUSH1 0xC0 MSTORE PUSH2 0x14A0 MLOAD PUSH1 0xE0 MSTORE PUSH2 0x1480 MLOAD PUSH2 0x100 MSTORE PUSH2 0x120 PUSH1 0x0 KECCAK256 SWAP1 POP DUP2 DUP2 MOD PUSH2 0x26C0 MSTORE DUP1 PUSH2 0x26E0 MSTORE POP PUSH2 0x2600 MLOAD PUSH2 0x2620 MLOAD PUSH2 0x3C0 MLOAD PUSH1 0x1 DUP1 DUP6 PUSH1 0x1 PUSH1 0x24 DUP1 CALLDATALOAD ADD PUSH1 0x20 PUSH2 0x3A0 MLOAD MUL DUP2 ADD DUP4 PUSH1 0x5 DUP11 MULMOD DUP5 PUSH1 0xC DUP12 MULMOD SWAP10 POP JUMPDEST DUP2 DUP4 LT ISZERO PUSH2 0xEDA JUMPI DUP3 CALLDATALOAD DUP6 DUP2 LT DUP6 AND SWAP5 POP DUP6 DUP11 DUP3 ADDMOD SWAP1 POP DUP6 DUP2 DUP4 ADD DUP10 MULMOD SWAP8 POP DUP6 DUP2 DUP13 ADD DUP9 MULMOD SWAP7 POP POP DUP5 DUP9 DUP3 MULMOD SWAP1 POP DUP5 DUP9 DUP12 MULMOD SWAP10 POP PUSH1 0x20 DUP4 ADD SWAP3 POP PUSH2 0xE9B JUMP JUMPDEST POP POP POP DUP1 PUSH2 0xF0C JUMPI PUSH32 0x374A972F00000000000000000000000000000000000000000000000000000000 PUSH1 0x0 MSTORE PUSH1 0x4 PUSH1 0x0 REVERT JUMPDEST POP POP DUP2 PUSH2 0x3000 MSTORE DUP1 PUSH2 0x3020 MSTORE POP POP POP POP POP DUP1 DUP2 PUSH1 0x1 PUSH2 0x2600 MLOAD ADDMOD PUSH2 0x2620 MLOAD MULMOD DUP1 PUSH2 0x380 MLOAD PUSH1 0x1 JUMPDEST DUP2 DUP2 LT ISZERO PUSH2 0xF48 JUMPI DUP5 DUP4 DUP5 MULMOD SWAP3 POP DUP1 ADD PUSH2 0xF33 JUMP JUMPDEST POP POP PUSH2 0x3100 MSTORE DUP2 DUP2 DUP1 MULMOD SWAP1 POP DUP2 DUP2 DUP3 MULMOD PUSH2 0x3120 MSTORE POP PUSH2 0x26C0 MLOAD PUSH2 0x380 MLOAD DUP2 SWAP1 PUSH1 0x1 JUMPDEST DUP2 DUP2 LT ISZERO PUSH2 0xF7F JUMPI DUP5 DUP4 DUP5 MULMOD SWAP3 POP DUP1 ADD PUSH2 0xF6A JUMP JUMPDEST POP POP DUP1 PUSH2 0x3040 MSTORE DUP3 PUSH1 0x1 DUP5 SUB DUP3 ADDMOD SWAP1 POP PUSH2 0x3400 MLOAD DUP1 DUP5 SUB PUSH2 0x3E0 MLOAD DUP6 DUP3 DUP7 ADDMOD DUP7 DUP5 DUP5 MULMOD SWAP3 POP DUP7 DUP8 DUP5 DUP9 ADDMOD DUP3 MULMOD SWAP1 POP DUP7 DUP5 DUP5 MULMOD SWAP3 POP DUP7 DUP8 DUP5 DUP9 ADDMOD DUP3 MULMOD SWAP1 POP DUP7 DUP8 DUP9 DUP7 DUP7 MULMOD DUP9 ADDMOD DUP3 MULMOD SWAP1 POP PUSH2 0x3C0 MLOAD SWAP3 POP DUP7 DUP3 DUP7 MULMOD SWAP2 POP DUP7 PUSH1 0x1 DUP9 SUB DUP8 ADDMOD DUP8 DUP5 DUP6 MULMOD SWAP5 POP DUP8 PUSH1 0x1 DUP10 SUB DUP10 DUP10 DUP12 DUP9 DUP14 DUP12 DUP13 MULMOD MULMOD MULMOD ADDMOD SWAP7 POP PUSH2 0x3020 MLOAD SWAP5 POP DUP5 SWAP4 POP DUP8 DUP3 DUP7 MULMOD SWAP5 POP DUP5 DUP9 DUP8 DUP8 MULMOD SWAP6 POP DUP6 DUP10 DUP4 DUP9 MULMOD SWAP7 POP DUP7 DUP11 PUSH2 0x3120 MLOAD DUP10 MULMOD SWAP8 POP DUP8 PUSH1 0x20 PUSH1 0x0 MSTORE PUSH1 0x20 DUP1 MSTORE PUSH1 0x20 PUSH1 0x40 MSTORE DUP12 DUP12 DUP11 MULMOD PUSH1 0x60 MSTORE PUSH1 0x2 DUP13 SUB PUSH1 0x80 MSTORE DUP12 PUSH1 0xA0 MSTORE PUSH1 0x20 PUSH1 0x0 PUSH1 0xC0 PUSH1 0x0 PUSH1 0x5 GAS STATICCALL PUSH2 0x1075 JUMPI PUSH32 0xF894A7BC00000000000000000000000000000000000000000000000000000000 PUSH1 0x0 MSTORE PUSH1 0x4 PUSH1 0x0 REVERT JUMPDEST PUSH1 0x0 MLOAD SWAP9 POP DUP12 DUP2 DUP11 MULMOD SWAP1 POP DUP12 DUP12 DUP11 MULMOD SWAP9 POP DUP12 DUP3 DUP11 MULMOD SWAP2 POP DUP12 PUSH2 0x3120 MLOAD DUP11 MULMOD SWAP9 POP DUP12 DUP4 DUP11 MULMOD SWAP3 POP DUP12 DUP6 DUP11 MULMOD SWAP9 POP DUP12 DUP5 DUP11 MULMOD SWAP4 POP DUP12 DUP11 DUP11 MULMOD SWAP9 POP DUP12 DUP9 DUP11 MULMOD SWAP8 POP DUP12 DUP7 DUP11 MULMOD SWAP9 POP DUP12 PUSH2 0x3020 MLOAD DUP14 DUP12 DUP13 MULMOD MULMOD SWAP9 POP DUP12 DUP10 PUSH2 0x3000 MLOAD MULMOD PUSH2 0x3060 MSTORE DUP12 DUP9 DUP12 MULMOD PUSH2 0x3080 MSTORE DUP12 DUP5 DUP8 MULMOD PUSH2 0x3780 MSTORE DUP12 DUP4 DUP9 MULMOD PUSH2 0x30A0 MSTORE DUP12 DUP3 PUSH2 0x3100 MLOAD MULMOD PUSH2 0x3140 MSTORE DUP12 DUP2 DUP9 MULMOD PUSH2 0x30C0 MSTORE POP POP POP POP POP POP POP POP POP POP POP PUSH2 0x2640 MLOAD POP PUSH2 0x2600 MLOAD PUSH2 0x2620 MLOAD DUP3 DUP4 PUSH2 0x1900 MLOAD DUP5 MULMOD DUP3 PUSH2 0x1620 MLOAD ADD ADD DUP5 PUSH2 0x18E0 MLOAD DUP6 MULMOD DUP4 PUSH2 0x1600 MLOAD ADD ADD MULMOD DUP4 DUP5 PUSH2 0x1940 MLOAD DUP6 MULMOD DUP4 PUSH2 0x1660 MLOAD ADD ADD DUP6 PUSH2 0x1920 MLOAD DUP7 MULMOD DUP5 PUSH2 0x1640 MLOAD ADD ADD MULMOD DUP5 DUP6 DUP7 DUP4 DUP6 MULMOD PUSH2 0x16A0 MLOAD MULMOD PUSH2 0x3480 MLOAD MULMOD DUP6 DUP7 PUSH2 0x1980 MLOAD DUP8 MULMOD DUP6 PUSH2 0x1620 MLOAD ADD ADD DUP8 PUSH2 0x1960 MLOAD DUP9 MULMOD DUP7 PUSH2 0x1600 MLOAD ADD ADD MULMOD SWAP3 POP DUP6 DUP7 PUSH2 0x19C0 MLOAD DUP8 MULMOD DUP6 PUSH2 0x1660 MLOAD ADD ADD DUP8 PUSH2 0x19A0 MLOAD DUP9 MULMOD DUP7 PUSH2 0x1640 MLOAD ADD ADD MULMOD SWAP2 POP DUP6 DUP7 DUP8 DUP9 DUP6 DUP8 MULMOD PUSH2 0x2080 MLOAD MULMOD PUSH2 0x3480 MLOAD MULMOD DUP8 SUB DUP3 ADDMOD SWAP1 POP DUP6 PUSH2 0x2640 MLOAD PUSH2 0x3480 MLOAD MULMOD PUSH2 0x3480 MSTORE DUP6 DUP7 DUP8 DUP9 PUSH2 0x3060 MLOAD DUP11 SUB PUSH2 0x2080 MLOAD ADDMOD PUSH2 0x30C0 MLOAD MULMOD PUSH2 0x3480 MLOAD MULMOD DUP3 ADDMOD SWAP1 POP DUP6 PUSH2 0x2640 MLOAD PUSH2 0x3480 MLOAD MULMOD PUSH2 0x3480 MSTORE DUP6 DUP7 DUP8 DUP9 PUSH1 0x1 DUP11 SUB PUSH2 0x16A0 MLOAD ADDMOD PUSH2 0x30A0 MLOAD MULMOD PUSH2 0x3480 MLOAD MULMOD DUP3 ADDMOD PUSH2 0x3600 MSTORE POP POP POP POP POP DUP1 PUSH2 0x2640 MLOAD PUSH2 0x3480 MLOAD MULMOD PUSH2 0x3480 MSTORE DUP1 PUSH2 0x1720 MLOAD PUSH2 0x2660 MLOAD MULMOD DUP2 DUP3 DUP4 PUSH2 0x2020 MLOAD PUSH2 0x1780 MLOAD MULMOD PUSH2 0x1640 MLOAD ADDMOD DUP3 ADDMOD SWAP1 POP DUP2 PUSH2 0x2660 MLOAD DUP3 MULMOD SWAP1 POP DUP2 DUP3 DUP4 PUSH2 0x2000 MLOAD PUSH2 0x1760 MLOAD MULMOD PUSH2 0x1620 MLOAD ADDMOD DUP3 ADDMOD SWAP1 POP DUP2 PUSH2 0x2660 MLOAD DUP3 MULMOD SWAP1 POP DUP2 DUP3 DUP4 PUSH2 0x19E0 MLOAD PUSH2 0x1700 MLOAD MULMOD PUSH2 0x1600 MLOAD ADDMOD DUP3 ADDMOD SWAP1 POP DUP2 PUSH2 0x1840 MLOAD DUP4 DUP5 PUSH2 0x2660 MLOAD PUSH2 0x1860 MLOAD MULMOD DUP6 DUP7 PUSH2 0x2680 MLOAD PUSH2 0x1880 MLOAD MULMOD DUP8 PUSH2 0x26A0 MLOAD PUSH2 0x18A0 MLOAD MULMOD ADDMOD ADDMOD ADDMOD DUP3 PUSH2 0x20C0 MLOAD DUP5 DUP6 PUSH2 0x2660 MLOAD PUSH2 0x20E0 MLOAD MULMOD DUP7 DUP8 PUSH2 0x2680 MLOAD PUSH2 0x2100 MLOAD MULMOD DUP9 PUSH2 0x26A0 MLOAD PUSH2 0x2120 MLOAD MULMOD ADDMOD ADDMOD ADDMOD DUP4 DUP5 PUSH1 0x1 PUSH2 0x2600 MLOAD ADDMOD PUSH2 0x2620 MLOAD MULMOD DUP5 PUSH2 0x2620 MLOAD DUP7 PUSH2 0x18C0 MLOAD DUP8 MULMOD ADDMOD SWAP4 POP DUP5 DUP2 DUP7 DUP8 PUSH2 0x2600 MLOAD DUP7 MULMOD DUP7 ADDMOD ADDMOD SWAP3 POP DUP5 DUP4 DUP6 MULMOD SWAP4 POP DUP5 DUP6 PUSH1 0x1 PUSH2 0x2600 MLOAD ADDMOD DUP6 MULMOD SWAP4 POP DUP5 PUSH2 0x30A0 MLOAD PUSH2 0x2640 MLOAD MULMOD SWAP3 POP DUP5 DUP4 DUP6 ADDMOD SWAP4 POP DUP5 PUSH2 0x16C0 MLOAD DUP6 MULMOD SWAP4 POP DUP5 DUP4 DUP7 SUB DUP6 ADDMOD SWAP4 POP DUP5 DUP2 DUP7 DUP8 PUSH2 0x2600 MLOAD PUSH2 0x2060 MLOAD MULMOD PUSH2 0x1680 MLOAD ADDMOD ADDMOD SWAP3 POP POP POP DUP3 PUSH2 0x30C0 MLOAD PUSH2 0x3420 MLOAD MULMOD DUP4 DUP2 DUP6 SUB DUP4 ADDMOD SWAP2 POP DUP4 PUSH2 0x20A0 MLOAD DUP4 MULMOD SWAP2 POP DUP4 DUP5 PUSH2 0x3140 MLOAD DUP4 MULMOD DUP4 ADDMOD SWAP2 POP POP DUP3 PUSH2 0x3480 MLOAD DUP5 DUP4 DUP7 SUB DUP6 ADDMOD MULMOD PUSH2 0x3620 MSTORE POP POP DUP1 PUSH2 0x3440 MLOAD PUSH2 0x3480 MLOAD MULMOD PUSH2 0x3480 MSTORE DUP1 PUSH2 0x16E0 MLOAD PUSH2 0x1600 MLOAD MULMOD DUP2 PUSH2 0x1700 MLOAD PUSH2 0x1620 MLOAD MULMOD DUP3 PUSH2 0x1720 MLOAD PUSH2 0x1640 MLOAD MULMOD DUP4 PUSH2 0x1740 MLOAD PUSH2 0x1660 MLOAD MULMOD DUP5 PUSH32 0x183227397098D014DC2822DB40C0AC2E9419F4243CDCB848A1F0FAC9F8000000 DUP7 DUP8 PUSH1 0x3 DUP10 SUB PUSH2 0x17A0 MLOAD ADDMOD DUP9 PUSH2 0x1760 MLOAD DUP11 PUSH2 0x1620 MLOAD PUSH2 0x1600 MLOAD MULMOD MULMOD MULMOD MULMOD DUP6 DUP7 DUP8 DUP9 DUP10 DUP6 DUP11 ADDMOD DUP9 ADDMOD DUP7 ADDMOD DUP5 ADDMOD PUSH2 0x1780 MLOAD ADDMOD SWAP5 POP POP POP POP POP DUP2 DUP3 DUP4 DUP5 DUP6 PUSH2 0x1660 MLOAD PUSH2 0x1600 MLOAD ADDMOD PUSH2 0x19E0 MLOAD DUP8 SUB ADDMOD PUSH2 0x1760 MLOAD ADDMOD DUP5 PUSH1 0x2 DUP7 SUB PUSH2 0x17A0 MLOAD ADDMOD MULMOD PUSH2 0x2640 MLOAD MULMOD DUP3 DUP4 DUP5 DUP6 DUP7 DUP6 PUSH2 0x2040 MLOAD ADDMOD DUP8 PUSH1 0x1 DUP10 SUB PUSH2 0x17A0 MLOAD ADDMOD MULMOD DUP6 ADDMOD PUSH2 0x17A0 MLOAD MULMOD PUSH2 0x3480 MLOAD MULMOD PUSH2 0x3640 MSTORE POP POP DUP1 PUSH2 0x3420 MLOAD PUSH2 0x3480 MLOAD MULMOD PUSH2 0x3480 MSTORE PUSH1 0x2 DUP2 SUB PUSH1 0x3 DUP3 SUB DUP3 PUSH2 0x1600 MLOAD DUP5 SUB PUSH2 0x1620 MLOAD ADDMOD DUP4 PUSH2 0x1620 MLOAD DUP6 SUB PUSH2 0x1640 MLOAD ADDMOD DUP5 PUSH2 0x1640 MLOAD DUP7 SUB PUSH2 0x1660 MLOAD ADDMOD DUP6 PUSH2 0x1660 MLOAD DUP8 SUB PUSH2 0x19E0 MLOAD ADDMOD DUP7 PUSH2 0x3480 MLOAD DUP9 DUP10 DUP9 DUP9 ADDMOD DUP11 DUP12 DUP12 DUP11 ADDMOD DUP13 DUP11 DUP15 SUB DUP15 DUP13 DUP14 MULMOD ADDMOD MULMOD MULMOD MULMOD SWAP4 POP DUP7 DUP8 DUP9 PUSH2 0x2640 MLOAD PUSH2 0x3480 MLOAD MULMOD DUP10 DUP11 DUP10 DUP9 ADDMOD DUP12 DUP13 DUP13 DUP11 ADDMOD DUP14 DUP11 DUP16 SUB DUP16 DUP13 DUP14 MULMOD ADDMOD MULMOD MULMOD MULMOD DUP6 ADDMOD SWAP4 POP DUP7 DUP8 DUP9 PUSH2 0x3420 MLOAD PUSH2 0x3480 MLOAD MULMOD DUP10 DUP11 DUP10 DUP8 ADDMOD DUP12 DUP13 DUP13 DUP10 ADDMOD DUP14 DUP10 DUP16 SUB DUP16 DUP12 DUP13 MULMOD ADDMOD MULMOD MULMOD MULMOD DUP6 ADDMOD SWAP4 POP DUP7 DUP8 DUP9 PUSH2 0x3440 MLOAD PUSH2 0x3480 MLOAD MULMOD DUP10 DUP11 DUP10 DUP7 ADDMOD DUP12 DUP13 DUP13 DUP9 ADDMOD DUP14 DUP9 DUP16 SUB DUP16 DUP11 DUP12 MULMOD ADDMOD MULMOD MULMOD MULMOD DUP6 ADDMOD SWAP4 POP POP POP POP DUP4 PUSH2 0x17C0 MLOAD DUP3 MULMOD PUSH2 0x3660 MSTORE POP POP PUSH2 0x3460 MLOAD PUSH2 0x3480 MLOAD DUP4 SWAP3 POP MULMOD PUSH2 0x3480 MSTORE DUP1 PUSH2 0x1620 MLOAD DUP3 SUB PUSH2 0x19E0 MLOAD ADDMOD DUP2 PUSH2 0x2040 MLOAD PUSH2 0x2040 MLOAD MULMOD DUP3 PUSH2 0x1640 MLOAD PUSH2 0x1640 MLOAD MULMOD DUP4 PUSH2 0x16E0 MLOAD DUP6 PUSH2 0x2040 MLOAD PUSH2 0x1640 MLOAD MULMOD MULMOD DUP5 DUP6 DUP7 DUP4 DUP5 ADDMOD DUP8 DUP6 DUP8 ADDMOD DUP9 SUB ADDMOD DUP7 DUP8 DUP8 DUP9 MULMOD DUP9 DUP10 PUSH2 0x1620 MLOAD PUSH2 0x19E0 MLOAD ADDMOD PUSH2 0x2000 MLOAD ADDMOD MULMOD ADDMOD SWAP3 POP POP POP DUP3 PUSH2 0x3480 MLOAD DUP5 DUP6 PUSH2 0x1760 MLOAD DUP8 SUB PUSH1 0x1 ADDMOD DUP5 MULMOD MULMOD SWAP1 POP DUP3 PUSH2 0x2020 MLOAD PUSH2 0x1640 MLOAD ADDMOD DUP4 PUSH2 0x1640 MLOAD DUP6 SUB DUP6 PUSH2 0x16E0 MLOAD PUSH2 0x2040 MLOAD MULMOD ADDMOD DUP5 DUP6 DUP3 DUP8 PUSH2 0x1620 MLOAD DUP10 SUB PUSH2 0x2000 MLOAD ADDMOD MULMOD DUP7 DUP7 DUP6 MULMOD ADDMOD SWAP4 POP POP POP DUP3 DUP4 PUSH2 0x2640 MLOAD PUSH2 0x3480 MLOAD MULMOD DUP5 DUP6 PUSH2 0x1760 MLOAD DUP8 SUB PUSH1 0x1 ADDMOD DUP6 MULMOD MULMOD SWAP2 POP DUP3 PUSH2 0x17E0 MLOAD DUP5 DUP5 DUP5 ADDMOD MULMOD PUSH2 0x3680 MSTORE POP POP DUP1 PUSH2 0x1620 MLOAD PUSH2 0x1620 MLOAD MULMOD DUP2 PUSH2 0x1640 MLOAD PUSH2 0x1640 MLOAD MULMOD DUP3 PUSH2 0x1620 MLOAD DUP5 PUSH1 0x11 DUP5 ADDMOD MULMOD DUP4 PUSH1 0x4 DUP4 MULMOD SWAP2 POP DUP4 PUSH1 0x9 DUP3 MULMOD SWAP1 POP DUP4 PUSH1 0x3 DUP5 MULMOD SWAP3 POP DUP4 DUP2 DUP6 SUB DUP6 DUP5 DUP8 DUP9 PUSH2 0x1620 MLOAD PUSH2 0x1620 MLOAD ADDMOD PUSH2 0x2000 MLOAD ADDMOD MULMOD ADDMOD SWAP2 POP POP DUP3 DUP4 DUP5 PUSH2 0x2020 MLOAD PUSH2 0x1640 MLOAD ADDMOD DUP6 PUSH2 0x1640 MLOAD PUSH2 0x1640 MLOAD ADDMOD MULMOD DUP5 SUB DUP5 DUP6 PUSH2 0x2000 MLOAD DUP8 SUB PUSH2 0x1620 MLOAD ADDMOD DUP6 MULMOD ADDMOD SWAP2 POP DUP3 PUSH2 0x3480 MLOAD DUP3 MULMOD SWAP1 POP DUP3 DUP4 PUSH2 0x2640 MLOAD PUSH2 0x3480 MLOAD MULMOD DUP4 MULMOD SWAP2 POP DUP3 PUSH2 0x1760 MLOAD DUP3 MULMOD SWAP1 POP DUP3 PUSH2 0x1760 MLOAD DUP4 MULMOD SWAP2 POP DUP3 DUP4 PUSH2 0x17E0 MLOAD DUP6 DUP6 DUP6 ADDMOD MULMOD PUSH2 0x3680 MLOAD ADDMOD PUSH2 0x3680 MSTORE POP POP DUP1 PUSH2 0x3460 MLOAD PUSH2 0x3480 MLOAD MULMOD PUSH2 0x3480 MSTORE DUP1 DUP2 PUSH2 0x1620 MLOAD PUSH2 0x19E0 MLOAD MULMOD DUP3 PUSH2 0x2000 MLOAD PUSH2 0x1600 MLOAD MULMOD ADDMOD DUP2 PUSH2 0x2020 MLOAD DUP4 SUB DUP4 DUP5 PUSH2 0x1640 MLOAD PUSH2 0x1620 MLOAD MULMOD DUP6 PUSH2 0x1660 MLOAD PUSH2 0x1600 MLOAD MULMOD ADDMOD ADDMOD DUP3 PUSH9 0x100000000000000000 DUP3 MULMOD SWAP1 POP DUP3 PUSH2 0x2040 MLOAD DUP5 SUB DUP3 ADDMOD SWAP1 POP DUP3 DUP3 DUP3 ADDMOD SWAP1 POP DUP3 PUSH2 0x1740 MLOAD DUP3 MULMOD SWAP1 POP DUP3 PUSH9 0x100000000000000000 DUP4 MULMOD SWAP2 POP DUP3 DUP4 PUSH2 0x2000 MLOAD PUSH2 0x19E0 MLOAD MULMOD DUP4 ADDMOD SWAP2 POP DUP3 PUSH2 0x1720 MLOAD DUP5 DUP6 PUSH2 0x1660 MLOAD PUSH2 0x1640 MLOAD ADDMOD DUP7 SUB DUP6 ADDMOD MULMOD DUP4 PUSH2 0x1760 MLOAD DUP6 DUP7 PUSH2 0x2040 MLOAD PUSH2 0x2020 MLOAD ADDMOD DUP8 SUB DUP8 PUSH2 0x1660 MLOAD DUP9 ADDMOD ADDMOD MULMOD SWAP3 POP DUP4 PUSH2 0x1700 MLOAD DUP6 DUP6 DUP8 DUP7 DUP7 ADDMOD ADDMOD MULMOD PUSH2 0x36C0 MSTORE POP POP PUSH2 0x2000 MLOAD DUP3 SWAP2 POP PUSH2 0x4000 SWAP1 MULMOD DUP2 PUSH2 0x19E0 MLOAD DUP3 ADDMOD SWAP1 POP DUP2 PUSH2 0x4000 DUP3 MULMOD SWAP1 POP DUP2 PUSH2 0x1640 MLOAD DUP3 ADDMOD SWAP1 POP DUP2 PUSH2 0x4000 DUP3 MULMOD SWAP1 POP DUP2 PUSH2 0x1620 MLOAD DUP3 ADDMOD SWAP1 POP DUP2 PUSH2 0x4000 DUP3 MULMOD SWAP1 POP DUP2 PUSH2 0x1600 MLOAD DUP3 ADDMOD SWAP1 POP DUP2 PUSH2 0x1660 MLOAD DUP4 SUB DUP3 ADDMOD SWAP1 POP DUP2 PUSH2 0x1740 MLOAD DUP3 MULMOD SWAP1 POP DUP2 PUSH2 0x4000 PUSH2 0x2020 MLOAD MULMOD DUP3 PUSH2 0x2000 MLOAD DUP3 ADDMOD SWAP1 POP DUP3 PUSH2 0x4000 DUP3 MULMOD SWAP1 POP DUP3 PUSH2 0x19E0 MLOAD DUP3 ADDMOD SWAP1 POP DUP3 PUSH2 0x4000 DUP3 MULMOD SWAP1 POP DUP3 PUSH2 0x1660 MLOAD DUP3 ADDMOD SWAP1 POP DUP3 PUSH2 0x4000 DUP3 MULMOD SWAP1 POP DUP3 PUSH2 0x1640 MLOAD DUP3 ADDMOD SWAP1 POP DUP3 PUSH2 0x2040 MLOAD DUP5 SUB DUP3 ADDMOD SWAP1 POP DUP3 PUSH2 0x1760 MLOAD DUP3 MULMOD SWAP1 POP DUP3 PUSH2 0x1720 MLOAD DUP5 DUP4 DUP6 ADDMOD MULMOD PUSH2 0x36E0 MSTORE POP POP DUP1 PUSH2 0x2660 MLOAD PUSH2 0x1640 MLOAD MULMOD DUP2 PUSH2 0x1620 MLOAD DUP3 ADDMOD SWAP1 POP DUP2 PUSH2 0x2660 MLOAD DUP3 MULMOD SWAP1 POP DUP2 PUSH2 0x1600 MLOAD DUP3 ADDMOD SWAP1 POP DUP2 PUSH2 0x2660 MLOAD DUP3 MULMOD SWAP1 POP DUP2 PUSH2 0x1780 MLOAD DUP3 ADDMOD SWAP1 POP DUP1 DUP3 PUSH2 0x1660 MLOAD DUP5 SUB DUP4 ADDMOD SWAP2 POP DUP2 PUSH2 0x3740 MSTORE DUP3 PUSH2 0x1600 MLOAD DUP5 SUB PUSH2 0x19E0 MLOAD ADDMOD DUP4 PUSH2 0x1660 MLOAD DUP6 SUB PUSH2 0x2040 MLOAD ADDMOD DUP5 DUP6 PUSH1 0x1 DUP8 SUB DUP5 ADDMOD DUP4 MULMOD DUP6 DUP7 DUP5 DUP9 SUB PUSH1 0x1 ADDMOD DUP4 MULMOD SWAP2 POP DUP6 DUP6 DUP8 PUSH2 0x2640 MLOAD DUP10 DUP6 DUP12 PUSH2 0x2640 MLOAD DUP10 MULMOD ADDMOD MULMOD ADDMOD PUSH2 0x3720 MSTORE DUP6 PUSH2 0x2660 MLOAD PUSH2 0x2020 MLOAD MULMOD SWAP5 POP DUP6 PUSH2 0x2000 MLOAD DUP7 ADDMOD SWAP5 POP DUP6 PUSH2 0x2660 MLOAD DUP7 MULMOD SWAP5 POP DUP6 PUSH2 0x19E0 MLOAD DUP7 ADDMOD SWAP5 POP DUP6 PUSH2 0x2660 MLOAD DUP7 MULMOD SWAP5 POP DUP6 DUP6 DUP8 SUB PUSH2 0x2040 MLOAD ADDMOD SWAP5 POP DUP6 PUSH2 0x1640 MLOAD DUP8 SUB PUSH2 0x2020 MLOAD ADDMOD SWAP2 POP DUP6 DUP7 DUP8 DUP8 DUP10 SUB PUSH1 0x1 ADDMOD DUP5 MULMOD DUP8 DUP6 DUP10 SUB PUSH1 0x1 ADDMOD MULMOD SWAP2 POP DUP6 DUP5 DUP8 SUB PUSH2 0x1660 MLOAD ADDMOD DUP7 DUP8 PUSH1 0x1 DUP10 SUB DUP4 ADDMOD DUP3 MULMOD SWAP1 POP DUP7 DUP8 PUSH1 0x1 DUP10 SUB DUP9 ADDMOD DUP8 MULMOD SWAP6 POP DUP7 PUSH2 0x2640 MLOAD DUP5 MULMOD SWAP3 POP DUP7 DUP3 DUP5 ADDMOD SWAP3 POP DUP7 PUSH2 0x2640 MLOAD DUP5 MULMOD SWAP3 POP DUP7 DUP7 DUP5 ADDMOD SWAP3 POP DUP7 PUSH2 0x2640 MLOAD DUP5 MULMOD SWAP3 POP DUP7 DUP2 DUP5 ADDMOD SWAP3 POP POP DUP2 PUSH2 0x3700 MSTORE POP POP DUP4 PUSH2 0x1620 MLOAD DUP6 SUB PUSH2 0x2000 MLOAD ADDMOD SWAP3 POP DUP4 PUSH2 0x1640 MLOAD DUP6 SUB DUP6 DUP7 DUP5 DUP9 SUB PUSH1 0x1 ADDMOD DUP7 MULMOD ADDMOD SWAP3 POP DUP4 PUSH2 0x1700 MLOAD PUSH2 0x3720 MLOAD MULMOD SWAP2 POP DUP4 DUP5 PUSH2 0x1740 MLOAD DUP6 MULMOD DUP4 ADDMOD SWAP2 POP DUP4 DUP5 PUSH2 0x1760 MLOAD PUSH2 0x3740 MLOAD MULMOD DUP4 ADDMOD SWAP2 POP DUP4 PUSH2 0x16E0 MLOAD DUP4 MULMOD SWAP2 POP DUP4 DUP5 PUSH2 0x17A0 MLOAD PUSH2 0x3700 MLOAD MULMOD DUP4 ADDMOD SWAP2 POP DUP4 PUSH2 0x36C0 MLOAD DUP4 ADDMOD SWAP3 POP DUP4 PUSH2 0x36E0 MLOAD DUP5 ADDMOD SWAP3 POP DUP4 PUSH2 0x1800 MLOAD DUP5 MULMOD SWAP3 POP DUP4 PUSH2 0x3480 MLOAD DUP5 MULMOD SWAP3 POP DUP3 PUSH2 0x36A0 MSTORE DUP4 PUSH2 0x3440 MLOAD PUSH2 0x3480 MLOAD MULMOD PUSH2 0x3480 MSTORE POP POP POP DUP1 PUSH2 0x3780 MLOAD DUP3 PUSH2 0x36A0 MLOAD DUP5 PUSH2 0x3680 MLOAD DUP7 PUSH2 0x3660 MLOAD DUP9 PUSH2 0x3640 MLOAD DUP11 PUSH2 0x3620 MLOAD PUSH2 0x3600 MLOAD ADDMOD ADDMOD ADDMOD ADDMOD ADDMOD MULMOD PUSH2 0x3760 DUP2 SWAP1 MSTORE PUSH2 0x26E0 MLOAD PUSH2 0x37A0 DUP2 SWAP1 MSTORE PUSH2 0x37C0 SWAP2 SWAP1 SWAP2 MSTORE PUSH2 0x2E4 PUSH1 0x4 CALLDATALOAD ADD PUSH2 0x520 DUP2 PUSH2 0x37E0 CALLDATACOPY POP POP PUSH2 0x560 PUSH2 0x37A0 KECCAK256 DUP2 DUP2 MOD PUSH2 0x2700 MSTORE PUSH1 0x0 DUP2 SWAP1 MSTORE PUSH1 0x1 PUSH1 0x20 MSTORE8 DUP2 PUSH1 0x21 PUSH1 0x0 KECCAK256 MOD PUSH2 0x2720 MSTORE PUSH1 0x2 PUSH1 0x20 MSTORE8 DUP2 PUSH1 0x21 PUSH1 0x0 KECCAK256 MOD PUSH2 0x2740 MSTORE PUSH1 0x3 PUSH1 0x20 MSTORE8 DUP2 PUSH1 0x21 PUSH1 0x0 KECCAK256 MOD PUSH2 0x2760 MSTORE PUSH1 0x4 PUSH1 0x20 MSTORE8 DUP2 PUSH1 0x21 PUSH1 0x0 KECCAK256 MOD PUSH2 0x2780 MSTORE PUSH1 0x5 PUSH1 0x20 MSTORE8 DUP2 PUSH1 0x21 PUSH1 0x0 KECCAK256 MOD PUSH2 0x27A0 MSTORE PUSH1 0x6 PUSH1 0x20 MSTORE8 DUP2 PUSH1 0x21 PUSH1 0x0 KECCAK256 MOD PUSH2 0x27C0 MSTORE PUSH1 0x7 PUSH1 0x20 MSTORE8 DUP2 PUSH1 0x21 PUSH1 0x0 KECCAK256 MOD PUSH2 0x27E0 MSTORE PUSH1 0x8 PUSH1 0x20 MSTORE8 DUP2 PUSH1 0x21 PUSH1 0x0 KECCAK256 MOD PUSH2 0x2800 MSTORE PUSH1 0x9 PUSH1 0x20 MSTORE8 DUP2 PUSH1 0x21 PUSH1 0x0 KECCAK256 MOD PUSH2 0x2820 MSTORE PUSH1 0xA PUSH1 0x20 MSTORE8 DUP2 PUSH1 0x21 PUSH1 0x0 KECCAK256 MOD PUSH2 0x2840 MSTORE PUSH1 0xB PUSH1 0x20 MSTORE8 DUP2 PUSH1 0x21 PUSH1 0x0 KECCAK256 MOD PUSH2 0x2860 MSTORE PUSH1 0xC PUSH1 0x20 MSTORE8 DUP2 PUSH1 0x21 PUSH1 0x0 KECCAK256 MOD PUSH2 0x2880 MSTORE PUSH1 0xD PUSH1 0x20 MSTORE8 DUP2 PUSH1 0x21 PUSH1 0x0 KECCAK256 MOD PUSH2 0x28A0 MSTORE PUSH1 0xE PUSH1 0x20 MSTORE8 DUP2 PUSH1 0x21 PUSH1 0x0 KECCAK256 MOD PUSH2 0x28C0 MSTORE PUSH1 0xF PUSH1 0x20 MSTORE8 DUP2 PUSH1 0x21 PUSH1 0x0 KECCAK256 MOD PUSH2 0x28E0 MSTORE PUSH1 0x10 PUSH1 0x20 MSTORE8 DUP2 PUSH1 0x21 PUSH1 0x0 KECCAK256 MOD PUSH2 0x2900 MSTORE PUSH1 0x11 PUSH1 0x20 MSTORE8 DUP2 PUSH1 0x21 PUSH1 0x0 KECCAK256 MOD PUSH2 0x2920 MSTORE PUSH1 0x12 PUSH1 0x20 MSTORE8 DUP2 PUSH1 0x21 PUSH1 0x0 KECCAK256 MOD PUSH2 0x2940 MSTORE PUSH1 0x13 PUSH1 0x20 MSTORE8 DUP2 PUSH1 0x21 PUSH1 0x0 KECCAK256 MOD PUSH2 0x2960 MSTORE PUSH1 0x14 PUSH1 0x20 MSTORE8 DUP2 PUSH1 0x21 PUSH1 0x0 KECCAK256 MOD PUSH2 0x2980 MSTORE PUSH1 0x15 PUSH1 0x20 MSTORE8 DUP2 PUSH1 0x21 PUSH1 0x0 KECCAK256 MOD PUSH2 0x29A0 MSTORE PUSH1 0x16 PUSH1 0x20 MSTORE8 DUP2 PUSH1 0x21 PUSH1 0x0 KECCAK256 MOD PUSH2 0x29C0 MSTORE PUSH1 0x17 PUSH1 0x20 MSTORE8 DUP2 PUSH1 0x21 PUSH1 0x0 KECCAK256 MOD PUSH2 0x29E0 MSTORE PUSH1 0x18 PUSH1 0x20 MSTORE8 DUP2 PUSH1 0x21 PUSH1 0x0 KECCAK256 MOD PUSH2 0x2A00 MSTORE PUSH1 0x19 PUSH1 0x20 MSTORE8 DUP2 PUSH1 0x21 PUSH1 0x0 KECCAK256 MOD PUSH2 0x2A20 MSTORE PUSH1 0x1A PUSH1 0x20 MSTORE8 DUP2 PUSH1 0x21 PUSH1 0x0 KECCAK256 MOD PUSH2 0x2A40 MSTORE PUSH1 0x1B PUSH1 0x20 MSTORE8 DUP2 PUSH1 0x21 PUSH1 0x0 KECCAK256 MOD PUSH2 0x2A60 MSTORE PUSH1 0x1C PUSH1 0x20 MSTORE8 DUP2 PUSH1 0x21 PUSH1 0x0 KECCAK256 MOD PUSH2 0x2A80 MSTORE PUSH1 0x1D PUSH1 0x20 MSTORE8 DUP2 PUSH1 0x21 PUSH1 0x0 KECCAK256 MOD PUSH2 0x2AA0 MSTORE PUSH1 0x1D PUSH1 0x20 MSTORE8 POP PUSH1 0x21 PUSH1 0x0 SWAP1 DUP2 KECCAK256 DUP3 DUP2 MOD PUSH2 0x2AC0 MSTORE DUP2 MSTORE PUSH2 0x2320 MLOAD PUSH1 0x20 MSTORE PUSH2 0x2300 MLOAD PUSH1 0x40 MSTORE PUSH2 0x2360 MLOAD PUSH1 0x60 MSTORE PUSH2 0x2340 MLOAD PUSH1 0x80 MSTORE PUSH1 0xA0 DUP2 KECCAK256 DUP3 SWAP1 MOD PUSH2 0x2B00 MSTORE PUSH2 0x13C0 MLOAD PUSH2 0x13E0 MLOAD DUP5 DUP3 DUP1 MULMOD DUP6 PUSH1 0x3 DUP8 DUP4 DUP7 MULMOD ADDMOD DUP7 DUP4 DUP5 MULMOD EQ SWAP4 POP POP DUP2 PUSH2 0x3160 MSTORE DUP1 PUSH1 0x20 PUSH2 0x3160 ADD MSTORE POP POP PUSH2 0x1400 MLOAD PUSH2 0x1420 MLOAD DUP5 DUP3 DUP4 MULMOD DUP6 PUSH1 0x3 DUP8 DUP4 DUP7 MULMOD ADDMOD DUP7 DUP4 DUP5 MULMOD EQ DUP5 AND SWAP4 POP POP DUP2 PUSH1 0x0 MSTORE DUP1 PUSH1 0x20 MSTORE POP POP PUSH2 0x3040 MLOAD PUSH1 0x40 MSTORE PUSH1 0x40 PUSH2 0x31A0 PUSH1 0x60 PUSH1 0x0 PUSH1 0x7 GAS STATICCALL AND PUSH1 0x40 PUSH2 0x3160 PUSH1 0x80 DUP2 PUSH1 0x6 GAS STATICCALL DUP2 AND SWAP1 POP PUSH2 0x1440 MLOAD PUSH2 0x1460 MLOAD DUP5 DUP3 DUP4 MULMOD DUP6 PUSH1 0x3 DUP8 DUP4 DUP7 MULMOD ADDMOD DUP7 DUP4 DUP5 MULMOD EQ DUP5 AND SWAP4 POP POP DUP2 PUSH1 0x0 MSTORE DUP1 PUSH1 0x20 MSTORE POP POP DUP2 PUSH2 0x3040 MLOAD PUSH2 0x3040 MLOAD MULMOD PUSH1 0x40 MSTORE PUSH1 0x40 PUSH2 0x31A0 PUSH1 0x60 PUSH1 0x0 PUSH1 0x7 GAS STATICCALL AND PUSH1 0x40 PUSH2 0x3160 PUSH1 0x80 DUP2 PUSH1 0x6 GAS STATICCALL DUP2 AND SWAP1 POP PUSH2 0x1480 MLOAD PUSH2 0x14A0 MLOAD DUP5 DUP3 DUP4 MULMOD DUP6 PUSH1 0x3 DUP8 DUP4 DUP7 MULMOD ADDMOD DUP7 DUP4 DUP5 MULMOD EQ DUP5 AND SWAP4 POP POP DUP2 PUSH1 0x0 MSTORE DUP1 PUSH1 0x20 MSTORE POP POP DUP2 PUSH2 0x3040 MLOAD DUP4 PUSH2 0x3040 MLOAD PUSH2 0x3040 MLOAD MULMOD MULMOD PUSH1 0x40 MSTORE PUSH1 0x40 PUSH2 0x31A0 PUSH1 0x60 PUSH1 0x0 PUSH1 0x7 GAS STATICCALL AND PUSH1 0x40 PUSH2 0x3160 PUSH1 0x80 DUP2 PUSH1 0x6 GAS STATICCALL DUP2 AND SWAP1 POP PUSH2 0x1200 MLOAD PUSH2 0x1220 MLOAD DUP5 DUP3 DUP4 MULMOD DUP6 PUSH1 0x3 DUP8 DUP4 DUP7 MULMOD ADDMOD DUP7 DUP4 DUP5 MULMOD EQ DUP5 AND SWAP4 POP POP DUP2 PUSH1 0x0 MSTORE DUP1 PUSH1 0x20 MSTORE POP POP DUP2 PUSH2 0x2700 MLOAD DUP4 PUSH1 0x1 PUSH2 0x2B00 MLOAD ADDMOD MULMOD PUSH1 0x40 MSTORE PUSH1 0x40 PUSH2 0x31A0 PUSH1 0x60 PUSH1 0x0 PUSH1 0x7 GAS STATICCALL AND PUSH1 0x40 PUSH2 0x3160 PUSH1 0x80 DUP2 PUSH1 0x6 GAS STATICCALL DUP2 AND SWAP1 POP PUSH2 0x1240 MLOAD PUSH2 0x1260 MLOAD DUP5 DUP3 DUP4 MULMOD DUP6 PUSH1 0x3 DUP8 DUP4 DUP7 MULMOD ADDMOD DUP7 DUP4 DUP5 MULMOD EQ DUP5 AND SWAP4 POP POP DUP2 PUSH1 0x0 MSTORE DUP1 PUSH1 0x20 MSTORE POP POP DUP2 PUSH2 0x2720 MLOAD DUP4 PUSH1 0x1 PUSH2 0x2B00 MLOAD ADDMOD MULMOD PUSH1 0x40 MSTORE PUSH1 0x40 PUSH2 0x31A0 PUSH1 0x60 PUSH1 0x0 PUSH1 0x7 GAS STATICCALL AND PUSH1 0x40 PUSH2 0x3160 PUSH1 0x80 DUP2 PUSH1 0x6 GAS STATICCALL DUP2 AND SWAP1 POP PUSH2 0x1280 MLOAD PUSH2 0x12A0 MLOAD DUP5 DUP3 DUP4 MULMOD DUP6 PUSH1 0x3 DUP8 DUP4 DUP7 MULMOD ADDMOD DUP7 DUP4 DUP5 MULMOD EQ DUP5 AND SWAP4 POP POP DUP2 PUSH1 0x0 MSTORE DUP1 PUSH1 0x20 MSTORE POP POP DUP2 PUSH2 0x2740 MLOAD DUP4 PUSH1 0x1 PUSH2 0x2B00 MLOAD ADDMOD MULMOD PUSH1 0x40 MSTORE PUSH1 0x40 PUSH2 0x31A0 PUSH1 0x60 PUSH1 0x0 PUSH1 0x7 GAS STATICCALL AND PUSH1 0x40 PUSH2 0x3160 PUSH1 0x80 DUP2 PUSH1 0x6 GAS STATICCALL DUP2 AND SWAP1 POP PUSH2 0x12C0 MLOAD PUSH2 0x12E0 MLOAD DUP5 DUP3 DUP4 MULMOD DUP6 PUSH1 0x3 DUP8 DUP4 DUP7 MULMOD ADDMOD DUP7 DUP4 DUP5 MULMOD EQ DUP5 AND SWAP4 POP POP DUP2 PUSH1 0x0 MSTORE DUP1 PUSH1 0x20 MSTORE POP POP DUP2 PUSH2 0x2760 MLOAD DUP4 PUSH1 0x1 PUSH2 0x2B00 MLOAD ADDMOD MULMOD PUSH1 0x40 MSTORE PUSH1 0x40 PUSH2 0x31A0 PUSH1 0x60 PUSH1 0x0 PUSH1 0x7 GAS STATICCALL AND PUSH1 0x40 PUSH2 0x3160 PUSH1 0x80 DUP2 PUSH1 0x6 GAS STATICCALL DUP2 AND SWAP1 POP PUSH2 0x1300 MLOAD PUSH2 0x1320 MLOAD DUP5 DUP3 DUP4 MULMOD DUP6 PUSH1 0x3 DUP8 DUP4 DUP7 MULMOD ADDMOD DUP7 DUP4 DUP5 MULMOD EQ DUP5 AND SWAP4 POP POP DUP2 PUSH1 0x0 MSTORE DUP1 PUSH1 0x20 MSTORE POP POP DUP2 PUSH2 0x2780 MLOAD DUP4 PUSH1 0x1 PUSH2 0x2B00 MLOAD ADDMOD MULMOD PUSH1 0x40 MSTORE PUSH1 0x40 PUSH2 0x31A0 PUSH1 0x60 PUSH1 0x0 PUSH1 0x7 GAS STATICCALL AND PUSH1 0x40 PUSH2 0x3160 PUSH1 0x80 DUP2 PUSH1 0x6 GAS STATICCALL DUP2 AND SWAP1 POP PUSH2 0x1340 MLOAD PUSH2 0x1360 MLOAD DUP5 DUP3 DUP4 MULMOD DUP6 PUSH1 0x3 DUP8 DUP4 DUP7 MULMOD ADDMOD DUP7 DUP4 DUP5 MULMOD EQ DUP5 AND SWAP4 POP POP DUP2 PUSH1 0x0 MSTORE DUP1 PUSH1 0x20 MSTORE POP POP DUP2 PUSH2 0x27A0 MLOAD DUP4 PUSH1 0x1 PUSH2 0x2B00 MLOAD ADDMOD MULMOD PUSH1 0x40 MSTORE PUSH1 0x40 PUSH2 0x31A0 PUSH1 0x60 PUSH1 0x0 PUSH1 0x7 GAS STATICCALL AND PUSH1 0x40 PUSH2 0x3160 PUSH1 0x80 DUP2 PUSH1 0x6 GAS STATICCALL DUP2 AND SWAP1 POP PUSH2 0x1380 MLOAD PUSH2 0x13A0 MLOAD DUP5 DUP3 DUP4 MULMOD DUP6 PUSH1 0x3 DUP8 DUP4 DUP7 MULMOD ADDMOD DUP7 DUP4 DUP5 MULMOD EQ DUP5 AND SWAP4 POP POP DUP2 PUSH1 0x0 MSTORE DUP1 PUSH1 0x20 MSTORE POP POP DUP2 PUSH2 0x27C0 MLOAD DUP4 PUSH1 0x1 PUSH2 0x2B00 MLOAD ADDMOD MULMOD PUSH1 0x40 MSTORE PUSH1 0x40 PUSH2 0x31A0 PUSH1 0x60 PUSH1 0x0 PUSH1 0x7 GAS STATICCALL AND PUSH1 0x40 PUSH2 0x3160 PUSH1 0x80 DUP2 PUSH1 0x6 GAS STATICCALL DUP2 AND SWAP1 POP PUSH2 0x400 MLOAD PUSH2 0x420 MLOAD DUP5 DUP3 DUP4 MULMOD DUP6 PUSH1 0x3 DUP8 DUP4 DUP7 MULMOD ADDMOD DUP7 DUP4 DUP5 MULMOD EQ DUP5 AND SWAP4 POP POP DUP2 PUSH1 0x0 MSTORE DUP1 PUSH1 0x20 MSTORE POP POP PUSH2 0x27E0 MLOAD PUSH1 0x40 MSTORE PUSH1 0x40 PUSH2 0x31A0 PUSH1 0x60 PUSH1 0x0 PUSH1 0x7 GAS STATICCALL AND PUSH1 0x40 PUSH2 0x3160 PUSH1 0x80 DUP2 PUSH1 0x6 GAS STATICCALL DUP2 AND SWAP1 POP PUSH2 0x440 MLOAD PUSH2 0x460 MLOAD DUP5 DUP3 DUP4 MULMOD DUP6 PUSH1 0x3 DUP8 DUP4 DUP7 MULMOD ADDMOD DUP7 DUP4 DUP5 MULMOD EQ DUP5 AND SWAP4 POP POP DUP2 PUSH1 0x0 MSTORE DUP1 PUSH1 0x20 MSTORE POP POP PUSH2 0x2800 MLOAD PUSH1 0x40 MSTORE PUSH1 0x40 PUSH2 0x31A0 PUSH1 0x60 PUSH1 0x0 PUSH1 0x7 GAS STATICCALL AND PUSH1 0x40 PUSH2 0x3160 PUSH1 0x80 DUP2 PUSH1 0x6 GAS STATICCALL DUP2 AND SWAP1 POP PUSH2 0x480 MLOAD PUSH2 0x4A0 MLOAD DUP5 DUP3 DUP4 MULMOD DUP6 PUSH1 0x3 DUP8 DUP4 DUP7 MULMOD ADDMOD DUP7 DUP4 DUP5 MULMOD EQ DUP5 AND SWAP4 POP POP DUP2 PUSH1 0x0 MSTORE DUP1 PUSH1 0x20 MSTORE POP POP PUSH2 0x2820 MLOAD PUSH1 0x40 MSTORE PUSH1 0x40 PUSH2 0x31A0 PUSH1 0x60 PUSH1 0x0 PUSH1 0x7 GAS STATICCALL AND PUSH1 0x40 PUSH2 0x3160 PUSH1 0x80 DUP2 PUSH1 0x6 GAS STATICCALL DUP2 AND SWAP1 POP PUSH2 0x4C0 MLOAD PUSH2 0x4E0 MLOAD DUP5 DUP3 DUP4 MULMOD DUP6 PUSH1 0x3 DUP8 DUP4 DUP7 MULMOD ADDMOD DUP7 DUP4 DUP5 MULMOD EQ DUP5 AND SWAP4 POP POP DUP2 PUSH1 0x0 MSTORE DUP1 PUSH1 0x20 MSTORE POP POP PUSH2 0x2840 MLOAD PUSH1 0x40 MSTORE PUSH1 0x40 PUSH2 0x31A0 PUSH1 0x60 PUSH1 0x0 PUSH1 0x7 GAS STATICCALL AND PUSH1 0x40 PUSH2 0x3160 PUSH1 0x80 DUP2 PUSH1 0x6 GAS STATICCALL DUP2 AND SWAP1 POP PUSH2 0x500 MLOAD PUSH2 0x520 MLOAD DUP5 DUP3 DUP4 MULMOD DUP6 PUSH1 0x3 DUP8 DUP4 DUP7 MULMOD ADDMOD DUP7 DUP4 DUP5 MULMOD EQ DUP5 AND SWAP4 POP POP DUP2 PUSH1 0x0 MSTORE DUP1 PUSH1 0x20 MSTORE POP POP PUSH2 0x2860 MLOAD PUSH1 0x40 MSTORE PUSH1 0x40 PUSH2 0x31A0 PUSH1 0x60 PUSH1 0x0 PUSH1 0x7 GAS STATICCALL AND PUSH1 0x40 PUSH2 0x3160 PUSH1 0x80 DUP2 PUSH1 0x6 GAS STATICCALL DUP2 AND SWAP1 POP PUSH2 0x540 MLOAD PUSH2 0x560 MLOAD DUP5 DUP3 DUP4 MULMOD DUP6 PUSH1 0x3 DUP8 DUP4 DUP7 MULMOD ADDMOD DUP7 DUP4 DUP5 MULMOD EQ DUP5 AND SWAP4 POP POP DUP2 PUSH1 0x0 MSTORE DUP1 PUSH1 0x20 MSTORE POP POP PUSH2 0x2880 MLOAD PUSH1 0x40 MSTORE PUSH1 0x40 PUSH2 0x31A0 PUSH1 0x60 PUSH1 0x0 PUSH1 0x7 GAS STATICCALL AND PUSH1 0x40 PUSH2 0x3160 PUSH1 0x80 DUP2 PUSH1 0x6 GAS STATICCALL DUP2 AND SWAP1 POP PUSH2 0x580 MLOAD PUSH2 0x5A0 MLOAD DUP5 DUP3 DUP4 MULMOD DUP6 PUSH1 0x3 DUP8 DUP4 DUP7 MULMOD ADDMOD DUP7 DUP4 DUP5 MULMOD EQ DUP5 AND SWAP4 POP POP DUP2 PUSH1 0x0 MSTORE DUP1 PUSH1 0x20 MSTORE POP POP PUSH2 0x28A0 MLOAD PUSH1 0x40 MSTORE PUSH1 0x40 PUSH2 0x31A0 PUSH1 0x60 PUSH1 0x0 PUSH1 0x7 GAS STATICCALL AND PUSH1 0x40 PUSH2 0x3160 PUSH1 0x80 DUP2 PUSH1 0x6 GAS STATICCALL DUP2 AND SWAP1 POP PUSH2 0x5C0 MLOAD PUSH2 0x5E0 MLOAD DUP5 DUP3 DUP4 MULMOD DUP6 PUSH1 0x3 DUP8 DUP4 DUP7 MULMOD ADDMOD DUP7 DUP4 DUP5 MULMOD EQ DUP5 AND SWAP4 POP POP DUP2 PUSH1 0x0 MSTORE DUP1 PUSH1 0x20 MSTORE POP POP PUSH2 0x28C0 MLOAD PUSH1 0x40 MSTORE PUSH1 0x40 PUSH2 0x31A0 PUSH1 0x60 PUSH1 0x0 PUSH1 0x7 GAS STATICCALL AND PUSH1 0x40 PUSH2 0x3160 PUSH1 0x80 DUP2 PUSH1 0x6 GAS STATICCALL DUP2 AND SWAP1 POP PUSH2 0x600 MLOAD PUSH2 0x620 MLOAD DUP5 DUP3 DUP4 MULMOD DUP6 PUSH1 0x3 DUP8 DUP4 DUP7 MULMOD ADDMOD DUP7 DUP4 DUP5 MULMOD EQ DUP5 AND SWAP4 POP POP DUP2 PUSH1 0x0 MSTORE DUP1 PUSH1 0x20 MSTORE POP POP PUSH2 0x28E0 MLOAD PUSH1 0x40 MSTORE PUSH1 0x40 PUSH2 0x31A0 PUSH1 0x60 PUSH1 0x0 PUSH1 0x7 GAS STATICCALL AND PUSH1 0x40 PUSH2 0x3160 PUSH1 0x80 DUP2 PUSH1 0x6 GAS STATICCALL DUP2 AND SWAP1 POP PUSH2 0x640 MLOAD PUSH2 0x660 MLOAD DUP5 DUP3 DUP4 MULMOD DUP6 PUSH1 0x3 DUP8 DUP4 DUP7 MULMOD ADDMOD DUP7 DUP4 DUP5 MULMOD EQ DUP5 AND SWAP4 POP POP DUP2 PUSH1 0x0 MSTORE DUP1 PUSH1 0x20 MSTORE POP POP PUSH2 0x2900 MLOAD PUSH1 0x40 MSTORE PUSH1 0x40 PUSH2 0x31A0 PUSH1 0x60 PUSH1 0x0 PUSH1 0x7 GAS STATICCALL AND PUSH1 0x40 PUSH2 0x3160 PUSH1 0x80 DUP2 PUSH1 0x6 GAS STATICCALL DUP2 AND SWAP1 POP PUSH2 0x680 MLOAD PUSH2 0x6A0 MLOAD DUP5 DUP3 DUP4 MULMOD DUP6 PUSH1 0x3 DUP8 DUP4 DUP7 MULMOD ADDMOD DUP7 DUP4 DUP5 MULMOD EQ DUP5 AND SWAP4 POP POP DUP2 PUSH1 0x0 MSTORE DUP1 PUSH1 0x20 MSTORE POP POP PUSH2 0x2920 MLOAD PUSH1 0x40 MSTORE PUSH1 0x40 PUSH2 0x31A0 PUSH1 0x60 PUSH1 0x0 PUSH1 0x7 GAS STATICCALL AND PUSH1 0x40 PUSH2 0x3160 PUSH1 0x80 DUP2 PUSH1 0x6 GAS STATICCALL DUP2 AND SWAP1 POP PUSH2 0x6C0 MLOAD PUSH2 0x6E0 MLOAD DUP5 DUP3 DUP4 MULMOD DUP6 PUSH1 0x3 DUP8 DUP4 DUP7 MULMOD ADDMOD DUP7 DUP4 DUP5 MULMOD EQ DUP5 AND SWAP4 POP POP DUP2 PUSH1 0x0 MSTORE DUP1 PUSH1 0x20 MSTORE POP POP PUSH2 0x2940 MLOAD PUSH1 0x40 MSTORE PUSH1 0x40 PUSH2 0x31A0 PUSH1 0x60 PUSH1 0x0 PUSH1 0x7 GAS STATICCALL AND PUSH1 0x40 PUSH2 0x3160 PUSH1 0x80 DUP2 PUSH1 0x6 GAS STATICCALL DUP2 AND SWAP1 POP PUSH2 0x700 MLOAD PUSH2 0x720 MLOAD DUP5 DUP3 DUP4 MULMOD DUP6 PUSH1 0x3 DUP8 DUP4 DUP7 MULMOD ADDMOD DUP7 DUP4 DUP5 MULMOD EQ DUP5 AND SWAP4 POP POP DUP2 PUSH1 0x0 MSTORE DUP1 PUSH1 0x20 MSTORE POP POP PUSH2 0x2960 MLOAD PUSH1 0x40 MSTORE PUSH1 0x40 PUSH2 0x31A0 PUSH1 0x60 PUSH1 0x0 PUSH1 0x7 GAS STATICCALL AND PUSH1 0x40 PUSH2 0x3160 PUSH1 0x80 DUP2 PUSH1 0x6 GAS STATICCALL DUP2 AND SWAP1 POP PUSH2 0x740 MLOAD PUSH2 0x760 MLOAD DUP5 DUP3 DUP4 MULMOD DUP6 PUSH1 0x3 DUP8 DUP4 DUP7 MULMOD ADDMOD DUP7 DUP4 DUP5 MULMOD EQ DUP5 AND SWAP4 POP POP DUP2 PUSH1 0x0 MSTORE DUP1 PUSH1 0x20 MSTORE POP POP PUSH2 0x2980 MLOAD PUSH1 0x40 MSTORE PUSH1 0x40 PUSH2 0x31A0 PUSH1 0x60 PUSH1 0x0 PUSH1 0x7 GAS STATICCALL AND PUSH1 0x40 PUSH2 0x3160 PUSH1 0x80 DUP2 PUSH1 0x6 GAS STATICCALL DUP2 AND SWAP1 POP PUSH2 0x780 MLOAD PUSH2 0x7A0 MLOAD DUP5 DUP3 DUP4 MULMOD DUP6 PUSH1 0x3 DUP8 DUP4 DUP7 MULMOD ADDMOD DUP7 DUP4 DUP5 MULMOD EQ DUP5 AND SWAP4 POP POP DUP2 PUSH1 0x0 MSTORE DUP1 PUSH1 0x20 MSTORE POP POP DUP2 PUSH2 0x29A0 MLOAD DUP4 PUSH1 0x1 PUSH2 0x2B00 MLOAD ADDMOD MULMOD PUSH1 0x40 MSTORE PUSH1 0x40 PUSH2 0x31A0 PUSH1 0x60 PUSH1 0x0 PUSH1 0x7 GAS STATICCALL AND PUSH1 0x40 PUSH2 0x3160 PUSH1 0x80 DUP2 PUSH1 0x6 GAS STATICCALL DUP2 AND SWAP1 POP PUSH2 0x7C0 MLOAD PUSH2 0x7E0 MLOAD DUP5 DUP3 DUP4 MULMOD DUP6 PUSH1 0x3 DUP8 DUP4 DUP7 MULMOD ADDMOD DUP7 DUP4 DUP5 MULMOD EQ DUP5 AND SWAP4 POP POP DUP2 PUSH1 0x0 MSTORE DUP1 PUSH1 0x20 MSTORE POP POP DUP2 PUSH2 0x29C0 MLOAD DUP4 PUSH1 0x1 PUSH2 0x2B00 MLOAD ADDMOD MULMOD PUSH1 0x40 MSTORE PUSH1 0x40 PUSH2 0x31A0 PUSH1 0x60 PUSH1 0x0 PUSH1 0x7 GAS STATICCALL AND PUSH1 0x40 PUSH2 0x3160 PUSH1 0x80 DUP2 PUSH1 0x6 GAS STATICCALL DUP2 AND SWAP1 POP PUSH2 0x800 MLOAD PUSH2 0x820 MLOAD DUP5 DUP3 DUP4 MULMOD DUP6 PUSH1 0x3 DUP8 DUP4 DUP7 MULMOD ADDMOD DUP7 DUP4 DUP5 MULMOD EQ DUP5 AND SWAP4 POP POP DUP2 PUSH1 0x0 MSTORE DUP1 PUSH1 0x20 MSTORE POP POP DUP2 PUSH2 0x29E0 MLOAD DUP4 PUSH1 0x1 PUSH2 0x2B00 MLOAD ADDMOD MULMOD PUSH1 0x40 MSTORE PUSH1 0x40 PUSH2 0x31A0 PUSH1 0x60 PUSH1 0x0 PUSH1 0x7 GAS STATICCALL AND PUSH1 0x40 PUSH2 0x3160 PUSH1 0x80 DUP2 PUSH1 0x6 GAS STATICCALL DUP2 AND SWAP1 POP PUSH2 0x840 MLOAD PUSH2 0x860 MLOAD DUP5 DUP3 DUP4 MULMOD DUP6 PUSH1 0x3 DUP8 DUP4 DUP7 MULMOD ADDMOD DUP7 DUP4 DUP5 MULMOD EQ DUP5 AND SWAP4 POP POP DUP2 PUSH1 0x0 MSTORE DUP1 PUSH1 0x20 MSTORE POP POP DUP2 PUSH2 0x2A00 MLOAD DUP4 PUSH1 0x1 PUSH2 0x2B00 MLOAD ADDMOD MULMOD PUSH1 0x40 MSTORE PUSH1 0x40 PUSH2 0x31A0 PUSH1 0x60 PUSH1 0x0 PUSH1 0x7 GAS STATICCALL AND PUSH1 0x40 PUSH2 0x3160 PUSH1 0x80 DUP2 PUSH1 0x6 GAS STATICCALL DUP2 AND SWAP1 POP PUSH2 0x880 MLOAD PUSH2 0x8A0 MLOAD DUP5 DUP3 DUP4 MULMOD DUP6 PUSH1 0x3 DUP8 DUP4 DUP7 MULMOD ADDMOD DUP7 DUP4 DUP5 MULMOD EQ DUP5 AND SWAP4 POP POP DUP2 PUSH1 0x0 MSTORE DUP1 PUSH1 0x20 MSTORE POP POP PUSH2 0x2A20 MLOAD PUSH1 0x40 MSTORE PUSH1 0x40 PUSH2 0x31A0 PUSH1 0x60 PUSH1 0x0 PUSH1 0x7 GAS STATICCALL AND PUSH1 0x40 PUSH2 0x3160 PUSH1 0x80 DUP2 PUSH1 0x6 GAS STATICCALL DUP2 AND SWAP1 POP PUSH2 0x8C0 MLOAD PUSH2 0x8E0 MLOAD DUP5 DUP3 DUP4 MULMOD DUP6 PUSH1 0x3 DUP8 DUP4 DUP7 MULMOD ADDMOD DUP7 DUP4 DUP5 MULMOD EQ DUP5 AND SWAP4 POP POP DUP2 PUSH1 0x0 MSTORE DUP1 PUSH1 0x20 MSTORE POP POP PUSH2 0x2A40 MLOAD PUSH1 0x40 MSTORE PUSH1 0x40 PUSH2 0x31A0 PUSH1 0x60 PUSH1 0x0 PUSH1 0x7 GAS STATICCALL AND PUSH1 0x40 PUSH2 0x3160 PUSH1 0x80 DUP2 PUSH1 0x6 GAS STATICCALL DUP2 AND SWAP1 POP PUSH2 0x900 MLOAD PUSH2 0x920 MLOAD DUP5 DUP3 DUP4 MULMOD DUP6 PUSH1 0x3 DUP8 DUP4 DUP7 MULMOD ADDMOD DUP7 DUP4 DUP5 MULMOD EQ DUP5 AND SWAP4 POP POP DUP2 PUSH1 0x0 MSTORE DUP1 PUSH1 0x20 MSTORE POP POP PUSH2 0x2A60 MLOAD PUSH1 0x40 MSTORE PUSH1 0x40 PUSH2 0x31A0 PUSH1 0x60 PUSH1 0x0 PUSH1 0x7 GAS STATICCALL AND PUSH1 0x40 PUSH2 0x3160 PUSH1 0x80 DUP2 PUSH1 0x6 GAS STATICCALL DUP2 AND SWAP1 POP PUSH2 0x940 MLOAD PUSH2 0x960 MLOAD DUP5 DUP3 DUP4 MULMOD DUP6 PUSH1 0x3 DUP8 DUP4 DUP7 MULMOD ADDMOD DUP7 DUP4 DUP5 MULMOD EQ DUP5 AND SWAP4 POP POP DUP2 PUSH1 0x0 MSTORE DUP1 PUSH1 0x20 MSTORE POP POP PUSH2 0x2A80 MLOAD PUSH1 0x40 MSTORE PUSH1 0x40 PUSH2 0x31A0 PUSH1 0x60 PUSH1 0x0 PUSH1 0x7 GAS STATICCALL AND PUSH1 0x40 PUSH2 0x3160 PUSH1 0x80 DUP2 PUSH1 0x6 GAS STATICCALL DUP2 AND SWAP1 POP PUSH2 0x980 MLOAD PUSH2 0x9A0 MLOAD DUP5 DUP3 DUP4 MULMOD DUP6 PUSH1 0x3 DUP8 DUP4 DUP7 MULMOD ADDMOD DUP7 DUP4 DUP5 MULMOD EQ DUP5 AND SWAP4 POP POP DUP2 PUSH1 0x0 MSTORE DUP1 PUSH1 0x20 MSTORE POP POP PUSH2 0x2AA0 MLOAD PUSH1 0x40 MSTORE PUSH1 0x40 PUSH2 0x31A0 PUSH1 0x60 PUSH1 0x0 PUSH1 0x7 GAS STATICCALL AND PUSH1 0x40 PUSH2 0x3160 PUSH1 0x80 DUP2 PUSH1 0x6 GAS STATICCALL DUP2 AND SWAP1 POP DUP2 DUP3 PUSH2 0x1600 MLOAD DUP5 PUSH2 0x2B00 MLOAD PUSH2 0x19E0 MLOAD MULMOD ADDMOD PUSH2 0x2700 MLOAD MULMOD DUP3 DUP4 DUP5 PUSH2 0x1620 MLOAD DUP7 PUSH2 0x2B00 MLOAD PUSH2 0x2000 MLOAD MULMOD ADDMOD PUSH2 0x2720 MLOAD MULMOD DUP3 ADDMOD SWAP1 POP DUP3 DUP4 DUP5 PUSH2 0x1640 MLOAD DUP7 PUSH2 0x2B00 MLOAD PUSH2 0x2020 MLOAD MULMOD ADDMOD PUSH2 0x2740 MLOAD MULMOD DUP3 ADDMOD SWAP1 POP DUP3 DUP4 DUP5 PUSH2 0x1660 MLOAD DUP7 PUSH2 0x2B00 MLOAD PUSH2 0x2040 MLOAD MULMOD ADDMOD PUSH2 0x2760 MLOAD MULMOD DUP3 ADDMOD SWAP1 POP DUP3 DUP4 DUP5 PUSH2 0x1680 MLOAD DUP7 PUSH2 0x2B00 MLOAD PUSH2 0x2060 MLOAD MULMOD ADDMOD PUSH2 0x2780 MLOAD MULMOD DUP3 ADDMOD SWAP1 POP DUP3 DUP4 DUP5 PUSH2 0x16A0 MLOAD DUP7 PUSH2 0x2B00 MLOAD PUSH2 0x2080 MLOAD MULMOD ADDMOD PUSH2 0x27A0 MLOAD MULMOD DUP3 ADDMOD SWAP1 POP DUP3 DUP4 DUP5 PUSH2 0x16C0 MLOAD DUP7 PUSH2 0x2B00 MLOAD PUSH2 0x20A0 MLOAD MULMOD ADDMOD PUSH2 0x27C0 MLOAD MULMOD DUP3 ADDMOD SWAP1 POP DUP3 DUP4 PUSH2 0x16E0 MLOAD PUSH2 0x27E0 MLOAD MULMOD DUP3 ADDMOD SWAP1 POP DUP3 DUP4 PUSH2 0x1700 MLOAD PUSH2 0x2800 MLOAD MULMOD DUP3 ADDMOD SWAP1 POP DUP3 DUP4 PUSH2 0x1720 MLOAD PUSH2 0x2820 MLOAD MULMOD DUP3 ADDMOD SWAP1 POP DUP3 DUP4 PUSH2 0x1740 MLOAD PUSH2 0x2840 MLOAD MULMOD DUP3 ADDMOD SWAP1 POP DUP3 DUP4 PUSH2 0x1760 MLOAD PUSH2 0x2860 MLOAD MULMOD DUP3 ADDMOD SWAP1 POP DUP3 DUP4 PUSH2 0x1780 MLOAD PUSH2 0x2880 MLOAD MULMOD DUP3 ADDMOD SWAP1 POP DUP3 DUP4 PUSH2 0x17A0 MLOAD PUSH2 0x28A0 MLOAD MULMOD DUP3 ADDMOD SWAP1 POP DUP3 DUP4 PUSH2 0x17C0 MLOAD PUSH2 0x28C0 MLOAD MULMOD DUP3 ADDMOD SWAP1 POP DUP3 DUP4 PUSH2 0x17E0 MLOAD PUSH2 0x28E0 MLOAD MULMOD DUP3 ADDMOD SWAP1 POP DUP3 DUP4 PUSH2 0x1800 MLOAD PUSH2 0x2900 MLOAD MULMOD DUP3 ADDMOD SWAP1 POP DUP3 DUP4 PUSH2 0x1960 MLOAD PUSH2 0x2920 MLOAD MULMOD DUP3 ADDMOD SWAP1 POP DUP3 DUP4 PUSH2 0x1980 MLOAD PUSH2 0x2940 MLOAD MULMOD DUP3 ADDMOD SWAP1 POP DUP3 DUP4 PUSH2 0x19A0 MLOAD PUSH2 0x2960 MLOAD MULMOD DUP3 ADDMOD SWAP1 POP DUP3 DUP4 PUSH2 0x19C0 MLOAD PUSH2 0x2980 MLOAD MULMOD DUP3 ADDMOD SWAP1 POP DUP3 DUP4 DUP5 PUSH2 0x1840 MLOAD DUP7 PUSH2 0x2B00 MLOAD PUSH2 0x20C0 MLOAD MULMOD ADDMOD PUSH2 0x29A0 MLOAD MULMOD DUP3 ADDMOD SWAP1 POP DUP3 DUP4 DUP5 PUSH2 0x1860 MLOAD DUP7 PUSH2 0x2B00 MLOAD PUSH2 0x20E0 MLOAD MULMOD ADDMOD PUSH2 0x29C0 MLOAD MULMOD DUP3 ADDMOD SWAP1 POP DUP3 DUP4 DUP5 PUSH2 0x1880 MLOAD DUP7 PUSH2 0x2B00 MLOAD PUSH2 0x2100 MLOAD MULMOD ADDMOD PUSH2 0x29E0 MLOAD MULMOD DUP3 ADDMOD SWAP1 POP DUP3 DUP4 DUP5 PUSH2 0x18A0 MLOAD DUP7 PUSH2 0x2B00 MLOAD PUSH2 0x2120 MLOAD MULMOD ADDMOD PUSH2 0x2A00 MLOAD MULMOD DUP3 ADDMOD SWAP1 POP DUP3 DUP4 PUSH2 0x18C0 MLOAD PUSH2 0x2A20 MLOAD MULMOD DUP3 ADDMOD SWAP1 POP DUP3 DUP4 PUSH2 0x18E0 MLOAD PUSH2 0x2A40 MLOAD MULMOD DUP3 ADDMOD SWAP1 POP DUP3 DUP4 PUSH2 0x1900 MLOAD PUSH2 0x2A60 MLOAD MULMOD DUP3 ADDMOD SWAP1 POP DUP3 DUP4 PUSH2 0x1920 MLOAD PUSH2 0x2A80 MLOAD MULMOD DUP3 ADDMOD SWAP1 POP DUP3 DUP4 PUSH2 0x1940 MLOAD PUSH2 0x2AA0 MLOAD MULMOD DUP3 ADDMOD SWAP1 POP DUP3 PUSH2 0x3760 MLOAD DUP3 ADDMOD SWAP1 POP PUSH1 0x1 PUSH1 0x0 MSTORE PUSH1 0x2 PUSH1 0x20 MSTORE DUP1 DUP4 SUB PUSH1 0x40 MSTORE POP PUSH1 0x40 PUSH2 0x31A0 PUSH1 0x60 PUSH1 0x0 PUSH1 0x7 GAS STATICCALL AND PUSH1 0x40 PUSH2 0x3160 PUSH1 0x80 DUP2 PUSH1 0x6 GAS STATICCALL AND PUSH2 0x3360 DUP2 SWAP1 MSTORE PUSH2 0x2B00 MLOAD PUSH2 0x26C0 MLOAD PUSH2 0x2300 MLOAD PUSH2 0x2320 MLOAD DUP7 DUP3 DUP1 MULMOD DUP8 PUSH1 0x3 DUP10 DUP4 DUP7 MULMOD ADDMOD DUP9 DUP4 DUP5 MULMOD EQ SWAP6 POP POP DUP2 PUSH1 0x0 MSTORE DUP1 PUSH1 0x20 MSTORE POP POP DUP1 PUSH1 0x40 MSTORE PUSH1 0x40 PUSH2 0x31A0 PUSH1 0x60 PUSH1 0x0 PUSH1 0x7 GAS STATICCALL DUP4 AND SWAP3 POP PUSH1 0x40 PUSH2 0x3160 PUSH1 0x80 PUSH2 0x3160 PUSH1 0x6 GAS STATICCALL DUP4 AND SWAP3 POP PUSH2 0x2340 MLOAD PUSH2 0x2360 MLOAD DUP7 DUP3 DUP4 MULMOD DUP8 PUSH1 0x3 DUP10 DUP4 DUP7 MULMOD ADDMOD DUP9 DUP4 DUP5 MULMOD EQ DUP7 AND SWAP6 POP POP DUP2 PUSH1 0x0 MSTORE DUP1 PUSH1 0x20 MSTORE POP POP DUP4 PUSH2 0x3C0 MLOAD DUP6 DUP4 DUP6 MULMOD MULMOD PUSH1 0x40 MSTORE POP PUSH1 0x40 PUSH2 0x31A0 PUSH1 0x60 PUSH1 0x0 PUSH1 0x7 GAS STATICCALL DUP3 AND SWAP2 POP PUSH1 0x40 PUSH2 0x3220 PUSH1 0x80 PUSH2 0x3160 PUSH1 0x6 GAS STATICCALL DUP3 AND SWAP2 POP PUSH2 0x2300 MLOAD PUSH1 0x0 MSTORE PUSH2 0x2320 MLOAD PUSH1 0x20 MSTORE PUSH2 0x2340 MLOAD PUSH1 0x40 MSTORE PUSH2 0x2360 MLOAD PUSH1 0x60 MSTORE DUP1 PUSH1 0x80 MSTORE PUSH1 0x40 DUP1 PUSH1 0x60 PUSH1 0x40 PUSH1 0x7 GAS STATICCALL DUP3 AND SWAP2 POP PUSH1 0x40 PUSH2 0x31E0 PUSH1 0x80 PUSH1 0x0 PUSH1 0x6 GAS STATICCALL DUP3 AND SWAP2 POP PUSH2 0x3200 MLOAD DUP5 SUB PUSH2 0x3200 MSTORE PUSH2 0x9C0 MLOAD ISZERO PUSH2 0x2B82 JUMPI PUSH2 0x3500 MLOAD PUSH2 0x3520 MLOAD DUP6 DUP3 DUP4 MULMOD DUP7 PUSH1 0x3 DUP9 DUP4 DUP7 MULMOD ADDMOD DUP8 DUP4 DUP5 MULMOD EQ DUP6 AND SWAP5 POP POP DUP2 PUSH1 0x0 MSTORE DUP1 PUSH1 0x20 MSTORE POP POP DUP3 DUP2 DUP3 MULMOD PUSH1 0x40 MSTORE PUSH1 0x40 PUSH1 0x60 DUP1 PUSH1 0x0 PUSH1 0x7 GAS STATICCALL DUP3 AND SWAP2 POP PUSH2 0x3540 MLOAD PUSH2 0x3560 MLOAD DUP6 DUP3 DUP4 MULMOD DUP7 PUSH1 0x3 DUP9 DUP4 DUP7 MULMOD ADDMOD DUP8 DUP4 DUP5 MULMOD EQ DUP6 AND SWAP5 POP POP DUP2 PUSH1 0x0 MSTORE DUP1 PUSH1 0x20 MSTORE POP POP PUSH1 0x40 PUSH1 0x0 PUSH1 0x60 PUSH1 0x0 PUSH1 0x7 GAS STATICCALL DUP3 AND SWAP2 POP PUSH2 0x3220 MLOAD PUSH1 0xA0 MSTORE PUSH2 0x3240 MLOAD PUSH1 0xC0 MSTORE PUSH1 0x40 PUSH2 0x3220 PUSH1 0x80 PUSH1 0x60 PUSH1 0x6 GAS STATICCALL DUP3 AND SWAP2 POP PUSH2 0x31E0 MLOAD PUSH1 0x40 MSTORE PUSH2 0x3200 MLOAD PUSH1 0x60 MSTORE PUSH1 0x40 PUSH2 0x31E0 PUSH1 0x80 PUSH1 0x0 PUSH1 0x6 GAS STATICCALL DUP3 AND SWAP2 POP JUMPDEST POP DUP1 PUSH2 0x2BB2 JUMPI PUSH32 0xF755F36900000000000000000000000000000000000000000000000000000000 PUSH1 0x0 MSTORE PUSH1 0x4 PUSH1 0x0 REVERT JUMPDEST DUP1 PUSH2 0x3380 MSTORE PUSH2 0x3220 MLOAD PUSH1 0x0 MSTORE PUSH2 0x3240 MLOAD PUSH1 0x20 MSTORE PUSH32 0x198E9393920D483A7260BFB731FB5D25F1AA493335A9E71297E485B7AEF312C2 PUSH1 0x40 MSTORE PUSH32 0x1800DEEF121F1E76426A00665E5C4479674322D4F75EDADD46DEBD5CD992F6ED PUSH1 0x60 MSTORE PUSH32 0x90689D0585FF075EC9E99AD690C3395BC4B313370B38EF355ACDADCD122975B PUSH1 0x80 MSTORE PUSH32 0x12C85EA5DB8C6DEB4AAB71808DCB408FE3D1E7690C43D37B4CE6CC0166FA7DAA PUSH1 0xA0 MSTORE PUSH2 0x31E0 MLOAD PUSH1 0xC0 MSTORE PUSH2 0x3200 MLOAD PUSH1 0xE0 MSTORE PUSH2 0xA00 MLOAD PUSH2 0x100 MSTORE PUSH2 0xA20 MLOAD PUSH2 0x120 MSTORE PUSH2 0xA40 MLOAD PUSH2 0x140 MSTORE PUSH2 0xA60 MLOAD PUSH2 0x160 MSTORE PUSH1 0x20 PUSH1 0x0 PUSH2 0x180 PUSH1 0x0 PUSH1 0x8 GAS STATICCALL SWAP1 POP DUP1 PUSH2 0x33A0 MSTORE PUSH1 0x0 MLOAD PUSH2 0x33C0 MSTORE POP POP POP PUSH2 0x3360 MLOAD PUSH2 0x3380 MLOAD PUSH2 0x33C0 MLOAD PUSH2 0x33A0 MLOAD AND AND AND PUSH2 0x2CE2 JUMPI PUSH32 0x711FCEC00000000000000000000000000000000000000000000000000000000 PUSH1 0x0 MSTORE PUSH1 0x4 PUSH1 0x0 REVERT JUMPDEST PUSH1 0x1 PUSH1 0x0 MSTORE PUSH1 0x20 PUSH1 0x0 RETURN JUMPDEST PUSH1 0x0 DUP1 PUSH1 0x0 DUP1 PUSH1 0x40 DUP6 DUP8 SUB SLT ISZERO PUSH2 0x2D03 JUMPI PUSH1 0x0 DUP1 REVERT JUMPDEST DUP5 CALLDATALOAD PUSH8 0xFFFFFFFFFFFFFFFF DUP1 DUP3 GT ISZERO PUSH2 0x2D1B JUMPI PUSH1 0x0 DUP1 REVERT JUMPDEST DUP2 DUP8 ADD SWAP2 POP DUP8 PUSH1 0x1F DUP4 ADD SLT PUSH2 0x2D2F JUMPI PUSH1 0x0 DUP1 REVERT JUMPDEST DUP2 CALLDATALOAD DUP2 DUP2 GT ISZERO PUSH2 0x2D3E JUMPI PUSH1 0x0 DUP1 REVERT JUMPDEST DUP9 PUSH1 0x20 DUP3 DUP6 ADD ADD GT ISZERO PUSH2 0x2D50 JUMPI PUSH1 0x0 DUP1 REVERT JUMPDEST PUSH1 0x20 SWAP3 DUP4 ADD SWAP7 POP SWAP5 POP SWAP1 DUP7 ADD CALLDATALOAD SWAP1 DUP1 DUP3 GT ISZERO PUSH2 0x2D6B JUMPI PUSH1 0x0 DUP1 REVERT JUMPDEST DUP2 DUP8 ADD SWAP2 POP DUP8 PUSH1 0x1F DUP4 ADD SLT PUSH2 0x2D7F JUMPI PUSH1 0x0 DUP1 REVERT JUMPDEST DUP2 CALLDATALOAD DUP2 DUP2 GT ISZERO PUSH2 0x2D8E JUMPI PUSH1 0x0 DUP1 REVERT JUMPDEST DUP9 PUSH1 0x20 DUP3 PUSH1 0x5 SHL DUP6 ADD ADD GT ISZERO PUSH2 0x2DA3 JUMPI PUSH1 0x0 DUP1 REVERT JUMPDEST SWAP6 SWAP9 SWAP5 SWAP8 POP POP PUSH1 0x20 ADD SWAP5 POP POP POP JUMP INVALID LOG2 PUSH5 0x6970667358 0x22 SLT KECCAK256 0x5E 0xBE 0x23 DUP14 SWAP12 SWAP13 0xE4 DUP12 0xCA 0xBA REVERT ORIGIN PUSH31 0x2D4A941BE0A5AD1222FFDE6DC8BDD5B813CB2764736F6C6343000812003300 "},"methodIdentifiers":{"getVerificationKeyHash()":"937f6a10","verify(bytes,bytes32[])":"ea50d0e4"}}}}}